:100000000C947C000C9499000C9499000C94990029
:100010000C9499000C9499000C9499000C949900FC
:100020000C9499000C9499000C9499000C949900EC
:100030000C9499000C9499000C94B2070C949900BC
:100040000C9499000C9499000C944D0C0C9499000C
:100050000C9499000C9499000C9499000C949900BC
:100060000C9499000C94990053797374656D206F0A
:100070006E6C696E652E0D0A000D0A2A2A2A2A2A3C
:100080002A2A2A424F4F54494E4720434F4E544943
:100090004B492A2A2A2A2A2A2A2A2A0D0A0000003B
:1000A0000000240027002A0000000000250028008E
:1000B0002B00000000002300260029000404040493
:1000C0000404040402020202020203030303030302
:1000D00001020408102040800102040810200102DF
:1000E00004081020000000070002010000030406BD
:1000F000000000000000000011241FBECFEFD8E078
:10010000DEBFCDBF13E0A0E0B1E0EAEBFBE202C04E
:1001100005900D92AC37B107D9F714E0ACE7B3E026
:1001200001C01D92AA3FB107E1F70E94EF050C94B0
:10013000DB150C9400000F931F93DF93CF9300D037
:1001400000D0CDB7DEB78C01DC018D919C9100977A
:1001500021F0479709F05EC015C0E0914402F0918C
:10016000450281E890E061E070E009958CE793E05A
:1001700060E07EE10E94D60587E190E0F80191837E
:10018000808306C08CE793E00E946F04892B11F4F2
:1001900081E044C0CE010196BE016D5F7F4F0E9499
:1001A0004C04882391F500D000D000D0EDB7FEB705
:1001B000319680E091E0ADB7BEB712969C938E93D6
:1001C000119789819A8193838283158214820E9478
:1001D000EE12EDB7FEB731968CE191E0ADB7BEB748
:1001E00012969C938E9311978B819C81938382832B
:1001F000158214820E94EE12EDB7FEB736960FB646
:10020000F894FEBF0FBEEDBFB1CF83E391E00E9433
:100210002913ACCFD8011D921C9283E00F900F9050
:100220000F900F90CF91DF911F910F910895EF9252
:10023000FF920F931F93892B11F490E002C09091CD
:10024000E1046091E104E090D404F090D5040091C1
:10025000D6041091D70420E030E040E050E0E3EC19
:10026000F0E0E491F0E0EE0FFF1FEE54FF4FA59198
:10027000B4910EC02E153F054007510728F020E02D
:1002800030E040E050E008C02F5F3F4F4F4F5F4FDE
:100290008C918623891771F3B901CA011F910F91BF
:1002A000FF90EF900895A0E0B0E0BC01CD010E9466
:1002B0003B1026E636E646EE5FE30E94BD0E20E0E8
:1002C00030E040E052E40E94900E0E94E70CCB0127
:1002D00008958097A0E0B0E0BC01CD010E943B10E2
:1002E00026E838E34EE05FE30E94BD0E0E94E70C73
:1002F000CB010895CF93DF93EB018138910539F05D
:1003000089E591E00E9429132FEF3FEF61C0E7EDEF
:10031000F0E0E491E093E104E3ECF0E0E491E093B9
:10032000D30480E89EE3A0E0B0E08093D4049093EF
:10033000D504A093D604B093D70487E062E00E946E
:100340001A0680E398EFAFEFBFEF8093D804909345
:10035000D904A093DA04B093DB0400D000D000D01D
:100360008AE691E0EDB7FEB7928381838091D40451
:100370009091D504A091D604B091D704838394833F
:10038000A583B6830E94EE120F900F9080E891E053
:10039000EDB7FEB7928381838BE090E094838383F3
:1003A0000E94EE120F900F900F900F90CD2B41F006
:1003B00085E991E00E94291381E08093840306C0BF
:1003C00084EA91E00E9429131092840320E030E037
:1003D000C901DF91CF910895CF92DF92EF92FF9202
:1003E0000F931F93DF93CF93CDB7DEB7C154D140A6
:1003F0000FB6F894DEBF0FBECDBF8C010E94F6068B
:100400009C0140E050E0012BD1F48091D804909100
:10041000D904A091DA04B091DB0479018A01E81AC9
:10042000F90A0A0B1B0BD801C70180509240A0406B
:10043000B04028F42091E2043091E30417C12093E6
:10044000D8043093D9044093DA045093DB0410921B
:10045000E0041092DF041092DE041092DD0410928A
:10046000DC0487E061E00E94860684EC99E020E9E4
:1004700031E0F9013197F1F70197D9F787E061E0B1
:100480000E941A0687E060E00E94860688EC90E0F1
:1004900020E931E0F9013197F1F70197D9F78FB7EA
:1004A0008983F89487E061E00E94860685ED8A954D
:1004B000F1F787E062E00E941A0685E38A95F1F77A
:1004C00080E090E00E94170161157105810591059A
:1004D00009F445C081E090E00E94170161157105A3
:1004E00081059105E1F132E0C32ED12CCC0EDD1E49
:1004F000860122E4E22E21E0F22EEC0EFD1E80E0C9
:1005000090E00E941701D8016D937D938D939C9389
:10051000139781E090E00E941701F80164837583CE
:1005200086839783085F1F4F0E151F0541F760E014
:1005300070E0D601ED90FD900D911C9113971496EB
:100540002D913D914D915C911797E114F1040105B6
:10055000110529F0211531054105510549F48FEFA9
:1005600090E09093E3048093E2042FEF30E07EC0AC
:10057000FB0193E0F595E7959A95E1F7E452FB4F7F
:100580008081880F8083E216F3060407150710F4B4
:10059000816080836F5F7F4FE8E0F0E0CE0EDF1E6A
:1005A0006832710531F689818FBF789487EB91E0CD
:1005B0000E9429135091DC042091DD043091DE0467
:1005C0004091DF040DB71EB70E5010400FB6F894DF
:1005D0001EBF0FBE0DBFEDB7FEB7319681EC91E0A7
:1005E000ADB7BEB712969C938E9311975283138228
:1005F0002483158236831782408711868091E00418
:1006000082871386250F230F240F248715860E94C7
:10061000EE124091E00450E02091DD048091DC0472
:1006200090E0820F911D2091DE04820F911D209198
:10063000DF04820F911D9070EDB7FEB73E960FB6A6
:10064000F894FEBF0FBEEDBF4817590739F410925A
:10065000E3041092E20420E030E008C08FEF9FEF47
:100660009093E3048093E2042FEF3FEFC901CF5B47
:10067000DE4F0FB6F894DEBF0FBECDBFCF91DF9136
:100680001F910F91FF90EF90DF90CF900895CF933F
:10069000DF93EC01CB010E94EC01892B79F500D0AE
:1006A00000D0EDB7FEB7319685ED91E0ADB7BEB79E
:1006B00012969C938E9311978091DE04828313820D
:1006C0000E94EE128091DE04682F70E00F900F9070
:1006D0000F900F90CD2B91F080E090E00E943B10A6
:1006E00026E636E646EE5FE30E94BD0E20E030E0EF
:1006F00040E052E40E94900E0E94E70CCB01DF9193
:10070000CF91089580E090E00E94EC010097C9F439
:1007100000D000D0EDB7FEB731968FED91E0ADB7C8
:10072000BEB712969C938E9311978091DC048283BE
:1007300013820E94EE128091DC040F900F900F90B4
:100740000F9090E00895AF92BF92CF92DF92EF9218
:10075000FF920F931F93CF93DF93EC0101970397C1
:1007600098F000D000D089EE91E0EDB7FEB792830B
:100770008183D483C3830E94EE122FEF3FEF0F904B
:100780000F900F900F907CC080918503882339F0E3
:100790008FEF91E00E9429132FEF30E071C081E0CC
:1007A0008093850380E090E00E94EC01892B09F49E
:1007B0004DC08CE192E00E942913E3ECF0E06491DB
:1007C000362F3295307F20E0442737FD4095542F57
:1007D00020503C4F4D4F5F4BF901A080B180C2804B
:1007E000D380E7EDF0E0E491EE2EFF24C701809581
:1007F0009095AA2797FDA095BA2FA822B922CA22C0
:10080000DB22F901A082B182C282D382962F929517
:10081000907F80E0AA2797FDA095BA2FEE0CFF1CD1
:10082000EE0CFF1C0027F7FC0095102F8E0D9F1D6E
:10083000A01FB11F80509040AE4FBF4BFC01808184
:100840009181A281B3811092850308C0C230D10585
:1008500059F0C330D10529F0219759F02FEF3FEF20
:100860000FC020E030E00CC080E090E00E948203E6
:1008700006C080E090E060E070E00E9447039C01C9
:10088000C901DF91CF911F910F91FF90EF90DF9001
:10089000CF90BF90AF9008950F931F93CF93DF93A6
:1008A0008C01EB0180E090E00E94EC01892B11F0BB
:1008B0008FEF10C080E090E00E94820399838883CC
:1008C00080E090E060E070E00E944703F8019183CF
:1008D000808380E0DF91CF911F910F91089520E0F8
:1008E00030E0FC0186819781892B11F421E030E012
:1008F000C9010895FC012281338180819181280FF3
:10090000391FC9010895FC018081918108952091CA
:100910008603309187032115310511F021E030E085
:10092000C90108958091860390918703892B19F45A
:1009300020E030E004C02091880330918903C90190
:1009400008958091860390918703892B29F4109252
:1009500089031092880308950E94F606BC01E09175
:100960008603F09187034281538180819181480FF2
:10097000591F461B570B0CC0228133818081918106
:10098000280F391F261B370B2417350708F4A90138
:100990000480F581E02D309779F7460F571F50936B
:1009A0008903409388030895CF93DF93EC01E0918E
:1009B0008603F09187038E179F0741F48C819D81F8
:1009C000909387038093860314C0FC01309731F025
:1009D000848195818C179D07C1F707C01D821C82F9
:1009E0001F821E82DF91CF9108958C819D81958316
:1009F00084830E94A104F2CFFC0180819181860F43
:100A0000971F918380830E94A104089588E492E057
:100A10000E94B40A0895EF92FF920F931F93CF9311
:100A2000DF937C01FC0180819181009729F08A3558
:100A3000910509F06DC00BC01092870310928603D8
:100A40008AE590E0F7019183808381E065C0673893
:100A500049F59A01E0918603F091870303C0048071
:100A6000F581E02D309741F38681978182179307B6
:100A7000B1F3E0938603F09387030FC016968D9130
:100A80009C9117978217930711F0FD0106C01496E9
:100A90008D919C91159795838483A481B58110973E
:100AA00069F7CECF623861F6C0918603D091870393
:100AB00000E010E02AC0CE010E94AD0B892B01F1AD
:100AC0008E819F8168E8AE010E944D0A892BA1F4B6
:100AD0001F821E828C819D810115110521F0F80174
:100AE0009583848304C090938703809386031D823B
:100AF0001C820E94A104D8CF88E492E00E94B40A2C
:100B00008E018C819D819C01E9012097A1F698CFEF
:100B1000F7011182108283E0DF91CF911F910F9135
:100B2000FF90EF900895CF93DF93EC0188E492E07B
:100B30000E94B40A8E819F81892B69F0E09186031F
:100B4000F091870306C0EC17FD07A9F00480F5813A
:100B5000E02D3097C1F780919403909195039F8386
:100B60008E8380918603909187039D838C83D0939D
:100B70008703C09386030E94A104DF91CF9108955B
:100B80000F931F938C010E94C50BC8010E9493050F
:100B90001F910F9108950F931F938C010E948E0B4C
:100BA000C8010E9493051F910F9108950F931F9301
:100BB0008C010E94D00BC8010E9493051F910F91D8
:100BC000089580E067E646E00E94780C80E00E948D
:100BD000DE0C80E068E67BE00E94910C08950E94A4
:100BE000E1050E94E9060E94AA090E94CA0A86E558
:100BF00092E060E070E00E94870A2D980E945A0BF4
:100C000085E591E00E94E70A00D089E790E0EDB722
:100C1000FEB7928381830E94031388E690E0EDB7CC
:100C2000FEB7928381830E9403130F900F900E945E
:100C3000DB09FDCFCF93DF93482F50E0CA018053EB
:100C40009F4FFC01349144545F4FFA0184918823F3
:100C500069F190E0880F991FFC01E256FF4FA591C2
:100C6000B491FC01E855FF4FC591D491662351F42E
:100C70002FB7F8948C91932F909589238C9388812A
:100C800089230BC0623061F42FB7F8948C91932FB5
:100C9000909589238C938881832B88832FBF06C0EE
:100CA0009FB7F8948C91832B8C939FBFDF91CF914A
:100CB0000895833071F0843028F48130A1F08230BF
:100CC00021F514C08630B1F08730D1F08430E9F4DA
:100CD00004C0809180008F7703C0809180008F7D59
:100CE00080938000089584B58F7702C084B58F7D8E
:100CF00084BD08958091B0008F778093B0000895EF
:100D00008091B0008F7D8093B0000895FF920F9383
:100D10001F93F62E482F50E0CA018C519F4FFC01C3
:100D20002491CA0180539F4FFC01149144545F4F9A
:100D3000FA0104910023C9F0222319F0822F0E94A6
:100D40005906E02FF0E0EE0FFF1FE855FF4FA59189
:100D5000B4919FB7F894FF2021F48C9110958123D2
:100D600002C08C91812B8C939FBF1F910F91FF909C
:100D700008950F931F93482F50E0CA018C519F4F45
:100D8000FC012491CA0180539F4FFC0104914454FB
:100D90005F4FFA011491112319F420E030E015C0DF
:100DA000222319F0822F0E945906812F90E0880F8C
:100DB000991F8E549F4FFC01A591B4918C9120E016
:100DC00030E0802311F021E030E0C9011F910F9144
:100DD0000895F89416BC83EF87BD92E094BD84E03B
:100DE00085BD15BA90936E007894089520918A037A
:100DF00030918B0380918A0390918B0328173907D8
:100E0000A9F7C90108952091EB043091EC044091B9
:100E1000ED045091EE048091EB049091EC04A091CC
:100E2000ED04B091EE04281739074A075B0759F71C
:100E3000B901CA0108956093EB047093EC048093A8
:100E4000ED049093EE040895AC0120918A03309153
:100E50008B0380918A0390918B0328173907A9F798
:100E6000420F531F20918A0330918B0380918A0394
:100E700090918B0328173907A9F7241B350B37FDF1
:100E8000F1CF0895009731F0880F991F880F991FAF
:100E90000197F1F7089520EA3FE004C0F901319786
:100EA000F1F701970097D1F70895EF92FF920F9312
:100EB0001F936FB7F89420918A0330918B03280F0A
:100EC000391F30938B0320938A0320918C03AC014C
:100ED000420F511DE090E704F090E8040091E9040E
:100EE0001091EA049A0115C0205031408091EB0422
:100EF0009091EC04A091ED04B091EE040196A11D37
:100F0000B11D8093EB049093EC04A093ED04B09397
:100F1000EE042F3F310509F038F7252F3327C9019B
:100F2000A0E0B0E08E0D9F1DA01FB11F8093E704CD
:100F30009093E804A093E904B093EA0480E09FEF63
:100F4000FC012E9FC0012F9F900D3E9F900D1124FC
:100F5000840F951F80938C036FBF1F910F91FF909B
:100F6000EF9008951F920F920FB60F9211242F93B6
:100F70003F934F935F936F937F938F939F93AF9321
:100F8000BF93EF93FF9380918A0390918B03019617
:100F900090938B0380938A0380918C038F5F80935F
:100FA0008C030E948704892B11F00E940605FF9193
:100FB000EF91BF91AF919F918F917F916F915F91D1
:100FC0004F913F912F910F900FBE0F901F9018954A
:100FD0008091E5049091E6040895AC01809191031D
:100FE000282F30E0A5EEB4E0E0E0F0E006C08D91FF
:100FF0009D918417950721F03196E217F307BCF312
:10100000EE0FFF1FE951FB4F808191810895CF932F
:10101000DF93EC018881998188379105B9F18F3789
:10102000910509F456C0892B09F085C00E94010979
:101030008093EF041092900310928F0314C0AC5170
:10104000BB4F1C920480F581E02D80E890E060E0C9
:1010500070E0099580918F03909190030196909391
:10106000900380938F03A0918F03B0919003FD01B3
:10107000EE0FFF1FEB51FB4F0190F081E02D3097F9
:10108000F1F6A093910388E790E01FC010928E03C1
:1010900010928D031092900310928F0339C0FD01BE
:1010A000EC51FB4F808187FF2AC0AA0FBB1FAB51B9
:1010B000BB4F4D915C9180E090E06091EF040E9405
:1010C0004D0A892B51F48FE790E09983888381E062
:1010D00035C08091EF046817D1F7E0918F03F0914C
:1010E0009003EC51FB4F80818F77808380918D033B
:1010F00090918E03019690938E0380938D0380913F
:101100008F039091900301969093900380938F03A7
:10111000A0918F03B09190038091910390E0A81764
:10112000B9070CF4BCCF80918D0390918E03892B6D
:1011300009F0ACCFA8CF1982188283E0DF91CF915C
:1011400008958F929F92AF92BF92CF92DF92EF92CB
:10115000FF920F931F93CF93DF934C01DC010D900F
:101160000020E9F78D0101501040081B190B8091F8
:101170009103A82EBB2435EEC32E34E0D32EEE24EB
:10118000FF240FC0F601C191D1916F01688179816F
:10119000C401A8010E94E012009741F00894E11CEC
:1011A000F11CEA14FB0474F3C0E0D0E0CE01DF913F
:1011B000CF911F910F91FF90EF90DF90CF90BF9054
:1011C000AF909F908F900895AC0180919103282F4C
:1011D00030E0A5EEB4E0E0E0F0E006C08D919D9136
:1011E0008417950721F03196E217F307BCF3EC5111
:1011F000FB4F80818068808386E592E00E94B40A7C
:10120000089580919E038F5F80939E03815008957F
:101210001F93CF93DF93EC01162F8E8180FF1EC0AA
:101220008A819B81892BD1F0D0939503C09394033D
:1012300082E08E83EA81FB81CE010496099599278D
:1012400087FD90950297029710F0133829F4CE018C
:10125000BE010E94320902C081E08E83DF91CF91EE
:101260001F910895CF92DF92EF92FF920F931F93F9
:10127000CF93DF93EC017B01C0909403D090950352
:10128000E0919203F091930303C00190F081E02D6F
:10129000EC17FD0719F03097C1F74CC0209709F4FF
:1012A00049C08E81882339F11E82009192031091EA
:1012B00093030BC0C017D10729F0C80167E8AE013E
:1012C0000E940809F801008111810115110591F7AB
:1012D0008A819B81892B79F0CE15DF0561F0D0934F
:1012E0009503C0939403EA81FB81CE01049663E8E1
:1012F00040E050E00995E0919203F0919303CE17FE
:10130000DF0791F4888199819093930380939203EE
:101310000DC0808191818C179D0729F48881998166
:101320009183808303C0FC01309799F7D092950395
:10133000C0929403DF91CF911F910F91FF90EF9096
:10134000DF90CF90089560919403709195030E946F
:10135000320908958AE880939E031092A0031092A8
:101360009F031092F0041092930310929203109234
:1013700095031092940308951F93CF93DF931092D7
:10138000C903C0919203D091930311E00EC08F81E5
:10139000882341F01E831F82CE0162E840E050E0C6
:1013A0000E9408090990D881C02D209781F7DF910C
:1013B000CF911F9108958091C903882311F00E9455
:1013C000BC0920919F03222309F455C08091A003FA
:1013D00090E0FC01EE0FFF1FEE0FFF1FE80FF91F5B
:1013E000EF55FC4F608160939D0341815281509382
:1013F0009C0340939B030380F481E02DF0939A03B8
:10140000E09399030196877090708093A003215018
:1014100020939F03309741F580919203909193031D
:1014200018C08091C903882311F00E94BC09409123
:101430009B0350919C038091970390919803609136
:101440009D030E940809E0919703F0919803808121
:101450009181909398038093970380919703909143
:101460009803892BF1F607C0613811F481E0868377
:10147000CF010E9408098091C90320919F0330E0A9
:10148000280F311DC90108958091C90320919F0340
:1014900030E0280F311DC9010895DC0120919F0320
:1014A000283019F421E030E021C08091A003820FA0
:1014B00087708093960390E0FC01EE0FFF1FEE0F04
:1014C000FF1FE80FF91FEF55FC4F608352834183E4
:1014D000B483A383922F9F5F90939F038091F00426
:1014E000891710F49093F00420E030E0C9010895CA
:1014F0000F931F9300919403109195030E94080984
:1015000010939503009394031F910F910895CF9327
:10151000DF93DC01EB016091920340919303862FEE
:10152000942F9C01F90103C00190F081E02DEA178E
:10153000FB07B9F03097C1F76C9311964C93119754
:10154000B0939303A093920381E016968C93169721
:1015500015961C921E921497CD0161E8AE010E946F
:10156000780ADF91CF910895FC01009741F08681C0
:101570008150823020F481E087838093C9030895ED
:1015800020E030E0FC018681882311F021E030E08A
:10159000C9010895CF93DF93C0E5D2E004C060E0B5
:1015A00070E00E94870A899199910097C1F7DF91B5
:1015B000CF910895CF93DF93EC0102C00E94A3095D
:1015C000899199910097D1F7DF91CF910895CF93A9
:1015D000DF93EC0104C060E070E00E94870A89910B
:1015E00099910097C1F7DF91CF910895CF93DF9341
:1015F000EC01888199818836910579F08A379105C7
:1016000009F44FC0892B09F04FC00E940109809353
:10161000F1041092CB031092CA038DE494E00E946F
:10162000130C2FEF8F3F920719F488E690E035C036
:101630002091CA033091CB038A30910571F02F3786
:1016400031055CF7F901E453FC4F80832F5F3F4F76
:101650003093CB032093CA03E0CFF901E453FC4F4E
:1016600010822F5F3F4F3093CB032093CA0380E05B
:1016700090E06091F1044CEC53E00E944D0A80919F
:1016800094039091950365E840E050E00E944D0A74
:10169000892B09F0BECF8AE790E09983888381E0A7
:1016A00006C06538E1F7B5CF1982188283E0DF9173
:1016B000CF9108958DE494E062E574E040E80E94E3
:1016C000DE0B8EE592E060E070E00E94870A0895EC
:1016D000682F8D3019F420E030E01EC080914C045A
:1016E000882351F48DE494E00E94E60B892B71F479
:1016F00081E080934C040AC06A3041F48DE494E0A8
:101700000E94E60B892B11F010924C048EE592E0BA
:101710000E94B40A21E030E0C9010895FC018081F3
:10172000918122813381820F931F91838083089559
:10173000EF92FF920F931F93FC01E080F1800281F2
:1017400013810E94F6060E0D1F1D081B190BC80100
:101750001F910F91FF90EF9008950F931F938C01AD
:101760000E94F60640E050E0F80120813181821BA2
:10177000930B0196228133812817390710F441E039
:1017800050E0CA011F910F9108950F931F938C0190
:101790000E94F606F801918380831F910F910895AE
:1017A0000F931F938C01FC01738362830E94F606E2
:1017B000F801918380831F910F910895FC0171833B
:1017C000608341504283138214820895DC01139692
:1017D0008C91139712962C91129730E0482F50E07D
:1017E00014968C911497FA01E81BF109CF0182231A
:1017F00093238217930719F420E030E012C0ED9193
:10180000FC911197E40FF51F608313968C91139749
:101810008F5F12969C911297892313968C9321E0E7
:1018200030E0C9010895DC0114964C91149712968A
:101830005C91129713968C91139790E0642F70E04F
:10184000861B970B252F30E0822393231816190649
:101850001CF02FEF3FEF0CC0ED91FC911197E60FBC
:10186000F71F80814F5F452314964C93282F30E05B
:10187000C9010895FC01228130E02F5F3F4FC9016B
:101880000895FC01238130E08481281B3109828185
:1018900090E028233923C90108951F920F920FB6B3
:1018A0000F9211242F933F934F935F936F937F93E6
:1018B0008F939F93AF93BF93EF93FF938091C60055
:1018C000E091F204F091F304309709F00995FF914B
:1018D000EF91BF91AF919F918F917F916F915F91A8
:1018E0004F913F912F910F900FBE0F901F90189521
:1018F000882369F41092C5006093C40088E980933E
:10190000C1004093C2001092F3041092F2040895B3
:10191000882331F48091C00085FFFCCF6093C6001E
:101920000895882321F47093F3046093F2040895DA
:10193000282FFB0131963DE016C09A3049F422234E
:1019400049F48091C00085FFFCCF3093C60002C0EF
:101950009D3041F0222331F48091C00085FFFCCFFF
:101960009093C600319692913196992331F708955C
:10197000982F8091C00085FFFCCF9093C6000895FA
:10198000982F8A3061F48091D204882351F4809199
:10199000C00085FFFCCF8DE08093C60002C08D3073
:1019A00051F08091D204882331F48091C00085FFEA
:1019B000FCCF9093C60080E090E008958093D2041D
:1019C00086E692E09093F7048093F6040895EF92F0
:1019D000FF920F931F937B018C0120E030E040E0E9
:1019E0005FE40E94B70F88238CF0C801B70120E0A4
:1019F00030E040E05FE40E945F0E0E94E70F9B0131
:101A0000AC01205030404040504806C0C801B701EA
:101A10000E94E70F9B01AC01B901CA011F910F9110
:101A2000FF90EF900895A0E0B0E0E9E1FDE00C94B4
:101A3000A912DC012B01FA019C91923008F439C102
:101A4000EB018881823008F433C1943069F484302A
:101A500009F02FC111969C9111978981981709F46B
:101A600028C1A4E7B2E025C1843009F421C1823045
:101A7000A9F4923009F01DC19A01AD0188E0EA0194
:101A80000990AE01E90109929E018150C1F7E2017E
:101A9000898111969C918923818308C1923009F430
:101AA00007C112962D903C901397EB018A819B8180
:101AB0001496AD90BD90CD90DC901797EC80FD8092
:101AC0000E811F819101281B390BB90137FF04C01A
:101AD00066277727621B730B603271050CF061C0BB
:101AE000121613066CF537014801062E04C09694B1
:101AF0008794779467940A94D2F721E030E040E02D
:101B000050E004C0220F331F441F551F6A95D2F7BF
:101B100021503040404050402E213F21402351234E
:101B2000211531054105510521F021E030E040E06B
:101B300050E079018A01E628F728082919293CC0D4
:101B4000232BD1F1260E371E35014601062E04C087
:101B500096948794779467940A94D2F721E030E0C2
:101B600040E050E004C0220F331F441F551F6A9508
:101B7000D2F721503040404050402A213B214C2197
:101B80005D21211531054105510521F021E030E0AD
:101B900040E050E059016A01A628B728C828D92892
:101BA0000BC0821593052CF01C01AA24BB246501EF
:101BB00003C0EE24FF24870111969C91D201119657
:101BC0008C91981709F445C0992339F0A801970121
:101BD0002A193B094C095D0906C0A60195012E1979
:101BE0003F09400B510B57FD08C0118233822282FE
:101BF00024833583468357831DC081E081833382EC
:101C0000228288279927DC01821B930BA40BB50B3A
:101C100084839583A683B7830DC0220F331F441F8F
:101C2000551F24833583468357838281938101978F
:101C3000938382832481358146815781DA01C901EA
:101C40000197A109B1098F5F9F4FAF4FBF4328F3A1
:101C50000BC0918333822282EA0CFB1C0C1D1D1DDC
:101C6000E482F5820683178383E0808324813581B3
:101C70004681578157FF1AC0C901AA2797FDA09531
:101C8000BA2F81709070A070B070569547953795B7
:101C90002795822B932BA42BB52B84839583A68326
:101CA000B78382819381019693838283DF0101C090
:101CB000D201CD01CDB7DEB7E2E10C94C512A0E2AE
:101CC000B0E0E5E6FEE00C94B51269837A838B837D
:101CD0009C832D833E834F835887E9E0EE2EF12CC1
:101CE000EC0EFD1ECE010196B7010E94D8118E01A7
:101CF0000F5E1F4FCE010596B8010E94D8118A8948
:101D000091E089278A8BC701B801AE01475E5F4F1A
:101D10000E94130D0E940311A096E6E00C94D112CC
:101D2000A0E2B0E0E6E9FEE00C94B51269837A83A4
:101D30008B839C832D833E834F835887F9E0EF2E5E
:101D4000F12CEC0EFD1ECE010196B7010E94D811B8
:101D50008E010F5E1F4FCE010596B8010E94D8116B
:101D6000C701B801AE01475E5F4F0E94130D0E948C
:101D70000311A096E6E00C94D112A0E2B0E0E3ECEF
:101D8000FEE00C94A91269837A838B839C832D8354
:101D90003E834F835887CE010196BE01675F7F4F18
:101DA0000E94D811CE010596BE016F5E7F4F0E9442
:101DB000D8119985923088F089898230C8F09430A2
:101DC00019F4823051F404C0843029F4923081F443
:101DD00084E792E0C6C0923049F420E09A858A896F
:101DE000981321E02A87CE010996BBC0823049F4BE
:101DF00020E09A858A89981321E02A8BCE014196AA
:101E0000B0C02D843E844F8458886D887E888F882A
:101E1000988CEE24FF248701AA24BB24650140E0AE
:101E200050E060E070E0E0E0F0E0C10181709070AF
:101E3000892BE9F0E60CF71C081D191D9A01AB016E
:101E40002A0D3B1D4C1D5D1D80E090E0A0E0B0E040
:101E5000E614F7040805190520F481E090E0A0E0FD
:101E6000B0E0BA01A901480F591F6A1F7B1FAA0CD5
:101E7000BB1CCC1CDD1C97FE08C081E090E0A0E0FC
:101E8000B0E0A82AB92ACA2ADB2A3196E032F10545
:101E900049F0660C771C881C991C5694479437941B
:101EA0002794C3CFFA85EA892B893C898B859C8549
:101EB000280F391F2E5F3F4F17C0CA0181709070E5
:101EC000892B61F016950795F794E79480E090E0F0
:101ED000A0E0B0E8E82AF92A0A2B1B2B7695679533
:101EE000579547952F5F3F4F77FDE7CF0CC0440FC5
:101EF000551F661F771F17FD4160EE0CFF1C001F6A
:101F0000111F21503040403090E0590790E06907A0
:101F100090E4790760F32B8F3C8FDB01CA018F7748
:101F20009070A070B07080349105A105B10561F486
:101F300047FD0AC0E114F1040105110529F0405CD8
:101F40005F4F6F4F7F4F40781A8EFE1711F081E080
:101F50008A8F4D8F5E8F6F8F78A383E0898FCE013C
:101F600049960E940311A096E2E10C94C512A8E1E3
:101F7000B0E0EDEBFFE00C94B51269837A838B83BC
:101F80009C832D833E834F83588789E0E82EF12C74
:101F9000EC0EFD1ECE010196B7010E94D8118E01F4
:101FA0000F5E1F4FCE010596B8010E94D81189859A
:101FB000823040F08989823028F0C701B8010E9440
:101FC000501201C08FEF6896E6E00C94D112ACE09D
:101FD000B0E0EDEEFFE00C94B91269837A838B8355
:101FE0009C83CE010196BE016B5F7F4F0E94D8118A
:101FF0008D81823061F1823050F1843021F48E8104
:10200000882351F12EC02F81388537FD20C06E8185
:102010002F3131051CF06623F9F023C08EE190E0EA
:10202000821B930B29853A854B855C8504C05695A8
:102030004795379527958A95D2F76623B1F0509545
:102040004095309521953F4F4F4F5F4F0EC020E098
:1020500030E040E050E009C02FEF3FEF4FEF5FE787
:1020600004C020E030E040E050E8B901CA012C96FD
:10207000E2E00C94D512A8E0B0E0E1E4F0E10C94C9
:10208000B1127B018C01611571058105910519F46F
:1020900082E0898360C083E089838EE1C82ED12CE1
:1020A000DC82CB82ED82FE820F831887C801B701E4
:1020B0000E94B410FC013197F7FF3BC02227332761
:1020C0002E1B3F0B57016801022E04C0D694C79403
:1020D000B794A7940A94D2F740E050E060E070E033
:1020E00081E090E0A0E0B0E004C0880F991FAA1F33
:1020F000BB1F2A95D2F70197A109B1098E219F2113
:10210000A023B1230097A105B10521F041E050E0E3
:1021100060E070E04A295B296C297D294D835E834C
:102120006F8378878EE190E08E1B9F0B9C838B835F
:1021300012C0309781F00E2E04C0EE0CFF1C001F61
:10214000111F0A94D2F7ED82FE820F831887CE1AF0
:10215000DF0ADC82CB821A82CE0101960E94031133
:102160002896EAE00C94CD12EF92FF920F931F9302
:102170007B018C0180E0E81680E0F80681E008072A
:1021800080E0180788F48FEFE816F10401051105C7
:1021900031F028F088E090E0A0E0B0E017C080E0E7
:1021A00090E0A0E0B0E012C080E0E81680E0F80621
:1021B00080E0080781E0180728F088E190E0A0E0BF
:1021C000B0E004C080E190E0A0E0B0E020E230E0C8
:1021D00040E050E0281B390B4A0B5B0B04C01695FE
:1021E0000795F794E7948A95D2F7F701E458FD4FE5
:1021F0008081281B310941095109C9011F910F91A3
:10220000FF90EF900895DF92EF92FF920F931F934C
:10221000FC01E480F58006811781D18080818230C5
:1022200048F480E090E0A0E1B0E0E82AF92A0A2B27
:102230001B2BA5C0843009F49FC0823021F4EE240A
:10224000FF24870105C0E114F1040105110519F40B
:10225000E0E0F0E096C0628173819FEF6238790719
:102260000CF05BC022E83FEF261B370B2A3131050B
:102270002CF020E030E040E050E02AC0B801A70197
:10228000022E04C076956795579547950A94D2F724
:1022900081E090E0A0E0B0E004C0880F991FAA1F81
:1022A000BB1F2A95D2F70197A109B1098E219F2161
:1022B000A023B1230097A105B10521F081E090E0B2
:1022C000A0E0B0E09A01AB01282B392B4A2B5B2B05
:1022D000DA01C9018F779070A070B07080349105D9
:1022E000A105B10539F427FF09C0205C3F4F4F4FCE
:1022F0005F4F04C0215C3F4F4F4F5F4FE0E0F0E085
:102300002030A0E03A07A0E04A07A0E45A0710F006
:10231000E1E0F0E079018A0127C06038710564F5D9
:10232000FB01E158FF4FD801C7018F779070A07073
:10233000B07080349105A105B10539F4E7FE0DC0F8
:1023400080E490E0A0E0B0E004C08FE390E0A0E083
:10235000B0E0E80EF91E0A1F1B1F17FF05C01695F7
:102360000795F794E794319687E016950795F794CB
:10237000E7948A95D1F705C0EE24FF248701EFEF9B
:10238000F0E06E2F679566276795902F9F77D7941B
:10239000DD24D7948E2F8695492F462B582F5D2903
:1023A000B701CA011F910F91FF90EF90DF90089540
:1023B000FC01DB01408151812281622F6F7770E047
:1023C000221F2227221F9381892F880F822B282FDB
:1023D00030E0991F9927991F11969C931197211509
:1023E0003105A9F5411551056105710511F482E02A
:1023F00037C082E89FEF13969C938E9312979A01B1
:10240000AB0167E0220F331F441F551F6A95D1F7B8
:1024100083E08C930DC0220F331F441F551F12966B
:102420008D919C911397019713969C938E9312977D
:10243000203080E0380780E0480780E4580758F3F0
:1024400014962D933D934D935C93179708952F3FCA
:10245000310579F4411551056105710519F484E0E0
:102460008C93089564FF03C081E08C9312C01C928A
:1024700010C02F57304013963C932E93129783E051
:102480008C9387E0440F551F661F771F8A95D1F7FD
:10249000706414964D935D936D937C931797089594
:1024A0001F93DC01FB019C91923008F447C08081AE
:1024B000823008F443C0943051F411961C9184305A
:1024C00099F58181682F70E0611B71093FC08430EC
:1024D00021F0923031F48230B9F18181882389F181
:1024E0002DC011961C9111978230F1F0818118173F
:1024F000D9F412962D913C91139782819381821782
:10250000930794F028173907BCF014968D919D918C
:102510000D90BC91A02D24813581468157812817CB
:1025200039074A075B0718F4112341F00AC08217E4
:102530009307A407B50740F4112319F061E070E098
:1025400005C06FEF7FEF02C060E070E0CB011F912C
:1025500008952F923F924F925F926F927F928F9247
:102560009F92AF92BF92CF92DF92EF92FF920F9322
:102570001F93CF93DF93CDB7DEB7CA1BDB0B0FB62C
:10258000F894DEBF0FBECDBF09942A8839884888E9
:102590005F846E847D848C849B84AA84B984C8847F
:1025A000DF80EE80FD800C811B81AA81B981CE0F76
:1025B000D11D0FB6F894DEBF0FBECDBFED0108955B
:1025C000FB01DC014150504030F08D9101908019A9
:1025D00019F40020B9F7881B990B0895A0E0B0E02A
:1025E000E4EFF2E10C94B912FE013596619171911C
:1025F0008091F6049091F704AF010E945E1320963B
:10260000E2E00C94D512A0E0B0E0E9E0F3E10C9434
:10261000B912FE01359661917191A091F604B091C5
:10262000F70413968C911397886013968C9380917E
:10263000F6049091F704AF010E945E13E091F60456
:10264000F091F7042381277F23832096E2E00C9406
:10265000D5120F931F93CF93DF938C01E091F60473
:10266000F091F704838181FF21C0C0E0D0E00DC06C
:10267000E091F604F091F70420853185BF01F9015E
:102680000995892B11F0CFEFDFEFF80181918F01D0
:10269000882371F7E091F604F091F70420853185E5
:1026A0008AE0BF01F9010995892B11F0CFEFDFEF27
:1026B000CE01DF91CF911F910F910895ABE0B0E073
:1026C000E4E6F3E10C94A9123C012B015A01FC0150
:1026D00017821682838181FD03C06FEF7FEFC6C131
:1026E0009AE0892E1E010894211C311CF3012381DC
:1026F000F20123FD859123FF81912F01882309F4A5
:10270000B2C1853239F423FD859123FF81912F01D8
:10271000853229F490E0B3010E945115E7CF982F3C
:10272000FF24EE249924FFE1FF15D0F09B3269F0DD
:102730009C3228F4903259F0933291F40EC09D32BD
:1027400049F0903369F441E024C052E0F52A84E076
:10275000F82A28C098E0F92A25C0E0E1FE2A22C024
:10276000F7FC29C0892F80538A3070F4F6FE05C02B
:10277000989C902C1124980E15C0E89CE02C1124F4
:10278000E80EF0E2FF2A0EC09E3229F4F6FC6BC17F
:1027900040E4F42A07C09C3619F450E8F52A02C038
:1027A000983649F4F20123FD959123FF91912F0171
:1027B000992309F0B8CF892F8554833018F08052BF
:1027C000833038F444E050E0A40EB51E5FE3598333
:1027D0000FC0933631F0933779F0933509F056C036
:1027E00020C0F5018081898342E050E0A40EB51E2F
:1027F000610101E010E012C0F501C080D180F6FC5B
:1028000003C06FEF7FEF02C0692D70E042E050E03F
:10281000A40EB51EC6010E9446158C015FE7F52285
:1028200014C0F501C080D180F6FC03C06FEF7FEFCC
:1028300002C0692D70E042E050E0A40EB51EC60152
:102840000E943B158C0150E8F52AF3FE07C01AC020
:1028500080E290E0B3010E945115EA948E2D90E041
:1028600008171907A8F30EC0F601F7FC8591F7FECB
:1028700081916F0190E0B3010E945115E110EA943B
:10288000015010400115110579F7EAC0943611F096
:10289000993669F5F7FE08C0F50120813181428142
:1028A000538184E090E00AC0F501808191819C0110
:1028B000442737FD4095542F82E090E0A80EB91EC2
:1028C0009FE6F92257FF09C0509540953095219514
:1028D0003F4F4F4F5F4FE0E8FE2ACA01B901A10107
:1028E0002AE030E00E947D15D82ED21840C09537DE
:1028F00029F41F2D1F7E2AE030E01DC01F2D197FF7
:102900009F3661F0903720F4983509F0ACC00FC0C5
:10291000903739F0983709F0A6C004C028E030E0BD
:102920000AC0106114FD146020E130E004C014FD01
:10293000166020E132E017FF08C0F5016081718167
:102940008281938144E050E008C0F501808191814B
:10295000BC0180E090E042E050E0A40EB51EA10171
:102960000E947D15D82ED2188FE7F82EF122F6FEA0
:102970000BC05EEFF522D91438F4F4FE07C0F2FC68
:1029800005C08FEEF82202C01D2D01C0192DF4FEE6
:102990000DC0FE01ED0DF11D8081803319F499EE1B
:1029A000F92208C01F5FF2FE05C003C08F2D867894
:1029B00009F01F5F0F2DF3FC14C0F0FE0FC01E15B1
:1029C00010F09D2C0BC09D2C9E0C911A1E2D06C044
:1029D00080E290E0B3010E9451151F5F1E15C0F305
:1029E00004C01E1510F4E11A01C0EE2404FF0FC04C
:1029F00080E390E0B3010E94511502FF1DC001FD6C
:102A000003C088E790E00EC088E590E00BC0802FFF
:102A1000867891F001FF02C08BE201C080E2F7FCF2
:102A20008DE290E0B3010E94511506C080E390E072
:102A3000B3010E9451159A94D914C0F3DA94F101AC
:102A4000ED0DF11D808190E0B3010E945115DD2054
:102A5000A9F706C080E290E0B3010E945115EA9404
:102A6000EE20C1F743CEF30166817781CB012B962F
:102A7000E2E10C94C512FC01059061507040011018
:102A8000D8F7809590958E0F9F1F0895FC01615097
:102A9000704001900110D8F7809590958E0F9F1F80
:102AA00008950F931F93CF93DF938C01EB018B81DC
:102AB00081FF1BC082FF0DC02E813F818C819D81D3
:102AC0002817390764F4E881F9810193F983E883D1
:102AD00006C0E885F985802F0995892B31F48E8110
:102AE0009F8101969F838E8302C00FEF1FEFC80165
:102AF000DF91CF911F910F910895FA01AA272830F5
:102B000051F1203181F1E8946F936E7F6E5F7F4FBA
:102B10008F4F9F4FAF4FB1E03ED0B4E03CD0670F36
:102B2000781F891F9A1FA11D680F791F8A1F911D89
:102B3000A11D6A0F711D811D911DA11D20D009F4D9
:102B400068943F912AE0269F11243019305D31931B
:102B5000DEF6CF010895462F4770405D4193B3E004
:102B60000FD0C9F7F6CF462F4F70405D4A3318F0AB
:102B7000495D31FD4052419302D0A9F7EACFB4E05C
:102B8000A6959795879577956795BA95C9F7009714
:102B90006105710508959B01AC010A2E06945795B5
:102BA000479537952795BA95C9F7620F731F841F0C
:0A2BB000951FA01D0895F894FFCFB3
:102BBA0054656D7065726174757265202530326472
:102BCA002E2530326420C2BA432C200048756D6924
:102BDA006469747920253032642E2530326420529B
:102BEA00480A004661696C656420746F20726561E9
:102BFA0064207468652073656E736F720000009BB1
:102C0A0000000000004D0100004552524F52204181
:102C1A00435449564154494F4E004D617820636CE4
:102C2A006F636B206379636C65733A2025640A00CD
:102C3A0053656E736F722074797065203A20444828
:102C4A005425640A0053454E534F5220454E414283
:102C5A004C45440053454E534F52204E4F54204545
:102C6A004E41424C45440052656365697665643A53
:102C7A0000256420256420256420256420256420FD
:102C8A002564200A00544D50203A2025640A004841
:102C9A00554D203A2025640A004448543A20496E8A
:102CAA0076616C696420747970652025750A004420
:102CBA0048543A206F6E676F696E67206F7065724D
:102CCA006174696F6E2C2077616974004448543AC4
:102CDA00204661696C20746F207265616420736597
:102CEA006E736F72004448542073656E736F72007E
:102CFA003502A3037A01000000000B050000000062
:102D0A0048025E0200000000070800000000000000
:102D1A00F60A000000000000000200000000C00CDB
:102D2A000000000000000000000000000001020294
:102D3A000303030304040404040404040505050549
:102D4A000505050505050505050505050606060625
:102D5A000606060606060606060606060606060609
:102D6A0006060606060606060606060607070707F5
:102D7A0007070707070707070707070707070707D9
:102D8A0007070707070707070707070707070707C9
:102D9A0007070707070707070707070707070707B9
:102DAA0007070707070707070707070708080808A5
:102DBA000808080808080808080808080808080889
:102DCA000808080808080808080808080808080879
:102DDA000808080808080808080808080808080869
:102DEA000808080808080808080808080808080859
:102DFA000808080808080808080808080808080849
:102E0A000808080808080808080808080808080838
:102E1A000808080808080808080808080808080828
:0C2E2A000808080808080808080808083C
:00000001FF
