:100000000C947C000C9499000C9499000C94990029
:100010000C9499000C945D010C9499000C94990037
:100020000C9499000C9499000C9499000C944B0436
:100030000C9499000C9499000C94ED030C94990085
:100040000C9499000C9499000C943D0A0C9499001E
:100050000C9499000C9499000C9499000C949900BC
:100060000C9499000C94990053797374656D206F0A
:100070006E6C696E652E0D0A000D0A2A2A2A2A2A3C
:100080002A2A2A424F4F54494E4720434F4E544943
:100090004B492A2A2A2A2A2A2A2A2A0D0A0000003B
:1000A0000000240027002A0000000000250028008E
:1000B0002B00000000002300260029000404040493
:1000C0000404040402020202020203030303030302
:1000D00001020408102040800102040810200102DF
:1000E00004081020000000070002010000030406BD
:1000F000000000000000000011241FBECFEFD8E078
:10010000DEBFCDBF11E0A0E0B1E0E4E1FCE102C060
:1001100005900D92A43EB107D9F713E0A4EEB1E02B
:1001200001C01D92A335B107E1F70E942A020C9489
:10013000080E0C940000CF93DF93EC018881998125
:10014000009721F08935910579F516C01092E401E8
:10015000E091AF01F091B00181E890E061E070E0E2
:1001600009950E94190280E091E00E941F0B89E529
:1001700090E09983888304C080914803681711F048
:1001800081E015C08091E401882339F48FE191E08A
:100190000E941F0B82E00E948E048091E40191E096
:1001A00089278093E401DFCF1982188283E0DF91F1
:1001B000CF91089586E391E00E941F0B8091E401A6
:1001C000882319F082E00E948204089581589040AB
:1001D000029718F020E030E004C02091E501309152
:1001E000E601C90108958138910509F04CC0672BDB
:1001F000D1F18091E5019091E601892B09F03CC095
:1002000087EE91E060E070E00E94D101E0ECF0E068
:10021000E4919E2F9295907F80E0AA2797FDA0956C
:10022000BA2F80509C4FAD4FBF4BFC0120813181D4
:10023000428153812F7E2083318342835383809177
:10024000680084608093680080916D008061809375
:100250006D0081E090E09093E6018093E501789451
:1002600086E591E007C01092E6011092E501EC9856
:1002700087E691E00E941F0B89E791E00E941F0B27
:1002800021E030E006C089E891E00E941F0B20E0E9
:1002900030E0C901089587E991E00E941F0B5C9B43
:1002A00008C087EE91E00E94AE0120E030E0892B8B
:1002B00011F421E030E0C90108951F920F920FB6AA
:1002C0000F9211242F933F934F935F936F937F93DC
:1002D0008F939F93AF93BF93EF93FF9387EE91E03C
:1002E0000E94AE01892B51F08BEA91E00E94B20589
:1002F00087EE91E060E07CE30E94D101FF91EF91F5
:10030000BF91AF919F918F917F916F915F914F912D
:100310003F912F910F900FBE0F901F901895FC01E9
:100320008081918122813381820F931F9183808309
:100330000895EF92FF920F931F93FC01E080F180EC
:10034000028113810E9431030E0D1F1D081B190B22
:10035000C8011F910F91FF90EF9008950F931F9385
:100360008C010E94310340E050E0F801208131818E
:10037000821B930B0196228133812817390710F4D1
:1003800041E050E0CA011F910F9108950F931F9310
:100390008C010E943103F801918380831F910F919A
:1003A00008950F931F938C01FC01738362830E9455
:1003B0003103F801918380831F910F910895A091DB
:1003C000EB01B091EC011097C1F01092EC0110928A
:1003D000EB0114966D917C9115971296ED91FC911D
:1003E0001397CD010995E091EB01F091EC01309765
:1003F00021F0808191810E943B0408950F931F9307
:10040000FC018091EB019091EC01338322831583F1
:10041000048371836083F093EC01E093EB01892BFB
:1004200019F4CB010E943B0480E090E01F910F91F2
:1004300008950E942304089580E067E646E00E9444
:10044000680A80E00E94CE0A80E066E378E00E94BD
:10045000810A08950E941C020E9424030E947806CB
:100460000E9498078DEB91E060E070E00E945507D4
:100470002D980E94280882E591E00E94B50700D0DF
:1004800089E790E0EDB7FEB7928381830E94F90A75
:1004900088E690E0EDB7FEB7928381830E94F90A67
:1004A0000F900F900E94A906FDCFCF93DF93482FA6
:1004B00050E0CA0180539F4FFC01349144545F4F78
:1004C000FA018491882369F190E0880F991FFC015B
:1004D000E256FF4FA591B491FC01E855FF4FC5913D
:1004E000D491662351F42FB7F8948C91932F909563
:1004F00089238C93888189230BC0623061F42FB7E4
:10050000F8948C91932F909589238C938881832BD9
:1005100088832FBF06C09FB7F8948C91832B8C9350
:100520009FBFDF91CF910895833071F0843028F41C
:100530008130A1F0823021F514C08630B1F08730CF
:10054000D1F08430E9F404C0809180008F7703C03B
:10055000809180008F7D80938000089584B58F778F
:1005600002C084B58F7D84BD08958091B0008F77DF
:100570008093B00008958091B0008F7D8093B0008B
:100580000895FF920F931F93F62E482F50E0CA0153
:100590008C519F4FFC012491CA0180539F4FFC0155
:1005A000149144545F4FFA0104910023C9F02223AF
:1005B00019F0822F0E949402E02FF0E0EE0FFF1F4F
:1005C000E855FF4FA591B4919FB7F894FF2021F40F
:1005D0008C911095812302C08C91812B8C939FBFAD
:1005E0001F910F91FF9008950F931F93482F50E094
:1005F000CA018C519F4FFC012491CA0180539F4F27
:10060000FC01049144545F4FFA011491112319F431
:1006100020E030E015C0222319F0822F0E949402BE
:10062000812F90E0880F991F8E549F4FFC01A59158
:10063000B4918C9120E030E0802311F021E030E093
:10064000C9011F910F910895F89416BC83EF87BDDF
:1006500092E094BD84E085BD15BA90936E007894C5
:1006600008952091ED013091EE018091ED0190917E
:10067000EE0128173907A9F7C9010895209144030D
:1006800030914503409146035091470380914403C4
:1006900090914503A0914603B0914703281739076D
:1006A0004A075B0759F7B901CA01089560934403EB
:1006B0007093450380934603909347030895AC01DC
:1006C0002091ED013091EE018091ED019091EE01CC
:1006D00028173907A9F7420F531F2091ED013091D8
:1006E000EE018091ED019091EE0128173907A9F7ED
:1006F000241B350B37FDF1CF0895009731F0880F9B
:10070000991F880F991F0197F1F7089520EA3FE09C
:1007100004C0F9013197F1F701970097D1F70895D7
:10072000EF92FF920F931F936FB7F8942091ED0112
:100730003091EE01280F391F3093EE012093ED0127
:100740002091EF01AC01420F511DE0904003F09069
:10075000410300914203109143039A0115C02050B8
:1007600031408091440390914503A0914603B0919C
:1007700047030196A11DB11D809344039093450347
:10078000A0934603B09347032F3F310509F038F794
:10079000252F3327C901A0E0B0E08E0D9F1DA01FBB
:1007A000B11F8093400390934103A0934203B09301
:1007B000430380E09FEFFC012E9FC0012F9F900D0F
:1007C0003E9F900D1124840F951F8093EF016FBF02
:1007D0001F910F91FF90EF9008951F920F920FB607
:1007E0000F9211242F933F934F935F936F937F93B7
:1007F0008F939F93AF93BF93EF93FF938091ED01FE
:100800009091EE0101969093EE018093ED0180911D
:10081000EF018F5F8093EF010E947408892B11F024
:100820000E94F308FF91EF91BF91AF919F918F913B
:100830007F916F915F914F913F912F910F900FBEDC
:100840000F901F9018959FB7F894EFE6F0E0808125
:10085000887D808386B3876286BB10928000E1E842
:10086000F0E01082109285001092840080818560F3
:1008700080839FBF08952FB7F89490938900809349
:10088000880086B3876286BBEFE6F0E080818260F5
:1008900080832FBF08951F920F920FB60F921124DD
:1008A0002F933F934F935F936F937F938F939F9378
:1008B000AF93BF93EF93FF93EFE6F0E08081887DE5
:1008C00080830E94DF01FF91EF91BF91AF919F91D3
:1008D0008F917F916F915F914F913F912F910F90E9
:1008E0000FBE0F901F9018959091F101982790934B
:1008F000F1018091F00189270E94D70A08950E9492
:100900007404089580959091F00189238093F001FB
:100910009091F10189270E94D70A08959091F001E2
:10092000982B9093F0018091F10189270E94D70ABA
:1009300008950E94DD0A08951F931091F10180919E
:10094000F00118271095812F0E9474048CE694E022
:100950000E947D03812F0E9474041F9108950E94BC
:10096000E60A1092F1011092F00108958091B3010E
:100970009091B4010895AC018091F601282F30E0E8
:10098000A3EBB1E0E0E0F0E006C08D919D9184170B
:10099000950721F03196E217F307BCF3EE0FFF1F26
:1009A000EB54FE4F808191810895CF93DF93EC014A
:1009B0008881998188379105B9F18F37910509F4BC
:1009C00056C0892B09F085C00E94CF05809348034B
:1009D0001092F5011092F40114C0A25CBC4F1C925D
:1009E0000480F581E02D80E890E060E070E00995FA
:1009F0008091F4019091F50101969093F501809317
:100A0000F401A091F401B091F501FD01EE0FFF1F7B
:100A1000ED54FE4F0190F081E02D3097F1F6A09358
:100A2000F60188E790E01FC01092F3011092F201E6
:100A30001092F5011092F40139C0FD01E25CFC4F07
:100A4000808187FF2AC0AA0FBB1FAD54BE4F4D91B6
:100A50005C9180E090E0609148030E941B07892B25
:100A600051F48FE790E09983888381E035C08091CD
:100A700048036817D1F7E091F401F091F501E25CC9
:100A8000FC4F80818F7780838091F2019091F301F8
:100A900001969093F3018093F2018091F40190917B
:100AA000F50101969093F5018093F401A091F40172
:100AB000B091F5018091F60190E0A817B9070CF408
:100AC000BCCF8091F2019091F301892B09F0ACCF5A
:100AD000A8CF1982188283E0DF91CF9108958F9279
:100AE0009F92AF92BF92CF92DF92EF92FF920F93BD
:100AF0001F93CF93DF934C01DC010D900020E9F7A9
:100B00008D0101501040081B190B8091F601A82E91
:100B1000BB2433EBC32E31E0D32EEE24FF240FC0D1
:100B2000F601C191D1916F0168817981C401A80159
:100B30000E94EB0A009741F00894E11CF11CEA14B2
:100B4000FB0474F3C0E0D0E0CE01DF91CF911F91A0
:100B50000F91FF90EF90DF90CF90BF90AF909F905C
:100B60008F900895AC018091F601282F30E0A3EB1F
:100B7000B1E0E0E0F0E006C08D919D91841795070B
:100B800021F03196E217F307BCF3E25CFC4F808161
:100B9000806880838DEB91E00E94820708958091A8
:100BA00003028F5F80930302815008951F93CF93B8
:100BB000DF93EC01162F8E8180FF1EC08A819B81FE
:100BC000892BD1F0D093FA01C093F90182E08E8392
:100BD000EA81FB81CE0104960995992787FD9095BE
:100BE0000297029710F0133829F4CE01BE010E943B
:100BF000000602C081E08E83DF91CF911F9108959E
:100C0000CF92DF92EF92FF920F931F93CF93DF93D8
:100C1000EC017B01C090F901D090FA01E091F7015D
:100C2000F091F80103C00190F081E02DEC17FD0771
:100C300019F03097C1F74CC0209709F449C08E8154
:100C4000882339F11E820091F7011091F8010BC041
:100C5000C017D10729F0C80167E8AE010E94D60588
:100C6000F801008111810115110591F78A819B819D
:100C7000892B79F0CE15DF0561F0D093FA01C0938E
:100C8000F901EA81FB81CE01049663E840E050E07F
:100C90000995E091F701F091F801CE17DF0791F483
:100CA000888199819093F8018093F7010DC080812C
:100CB00091818C179D0729F4888199819183808384
:100CC00003C0FC01309799F7D092FA01C092F90164
:100CD000DF91CF911F910F91FF90EF90DF90CF9018
:100CE00008956091F9017091FA010E94000608953B
:100CF0008AE8809303021092050210920402109277
:100D000049031092F8011092F7011092FA01109223
:100D1000F90108951F93CF93DF9310922E02C09193
:100D2000F701D091F80111E00EC08F81882341F0C6
:100D30001E831F82CE0162E840E050E00E94D6058B
:100D40000990D881C02D209781F7DF91CF911F9115
:100D5000089580912E02882311F00E948A06209126
:100D60000402222309F455C08091050290E0FC01A1
:100D7000EE0FFF1FEE0FFF1FE80FF91FEA5FFD4F99
:100D8000608160930202418152815093010240933D
:100D900000020380F481E02DF093FF01E093FE0157
:100DA0000196877090708093050221502093040271
:100DB000309741F58091F7019091F80118C080912A
:100DC0002E02882311F00E948A0640910002509161
:100DD00001028091FC019091FD01609102020E944C
:100DE000D605E091FC01F091FD0180819181909305
:100DF000FD018093FC018091FC019091FD01892B04
:100E0000F1F607C0613811F481E08683CF010E94BA
:100E1000D60580912E022091040230E0280F311D6A
:100E2000C901089580912E022091040230E0280F1C
:100E3000311DC9010895DC0120910402283019F404
:100E400021E030E021C080910502820F87708093FD
:100E5000FB0190E0FC01EE0FFF1FEE0FFF1FE80FFC
:100E6000F91FEA5FFD4F608352834183B483A383FC
:100E7000922F9F5F9093040280914903891710F489
:100E80009093490320E030E0C90108950F931F9328
:100E90000091F9011091FA010E94D6051093FA0110
:100EA0000093F9011F910F910895CF93DF93DC0117
:100EB000EB016091F7014091F801862F942F9C017E
:100EC000F90103C00190F081E02DEA17FB07B9F0AA
:100ED0003097C1F76C9311964C931197B093F8012A
:100EE000A093F70181E016968C93169715961C92A5
:100EF0001E921497CD0161E8AE010E944607DF9172
:100F0000CF910895FC01009741F086818150823095
:100F100020F481E0878380932E02089520E030E062
:100F2000FC018681882311F021E030E0C901089599
:100F3000CF93DF93C7EBD1E004C060E070E00E9484
:100F40005507899199910097C1F7DF91CF91089545
:100F5000CF93DF93EC0102C00E94710689919991B1
:100F60000097D1F7DF91CF910895CF93DF93EC01F4
:100F700004C060E070E00E94550789919991009744
:100F8000C1F7DF91CF910895CF93DF93EC01888172
:100F900099818836910579F08A37910509F44FC017
:100FA000892B09F04FC00E94CF0580934A0310920D
:100FB000300210922F0282EB92E00E94030A2FEF80
:100FC0008F3F920719F488E690E035C020912F02F8
:100FD000309130028A30910571F02F3731055CF77E
:100FE000F901EF5CFD4F80832F5F3F4F309330025C
:100FF00020932F02E0CFF901EF5CFD4F10822F5FAD
:101000003F4F3093300220932F0280E090E06091B8
:101010004A0341E352E00E941B078091F90190913D
:10102000FA0165E840E050E00E941B07892B09F0B7
:10103000BECF8AE790E09983888381E006C0653857
:10104000E1F7B5CF1982188283E0DF91CF9108953F
:1010500082EB92E067EB72E040E80E94CE0985ECFB
:1010600091E060E070E00E9455070895682F8D3090
:1010700019F420E030E01EC08091B102882351F4C1
:1010800082EB92E00E94D609892B71F481E0809373
:10109000B1020AC06A3041F482EB92E00E94D609A4
:1010A000892B11F01092B10285EC91E00E94820729
:1010B00021E030E0C901089520E030E0FC018681A4
:1010C0009781892B11F421E030E0C9010895FC01DA
:1010D0002281338180819181280F391FC9010895B0
:1010E000FC0180819181089520913703309138036C
:1010F0002115310511F021E030E0C90108958091FA
:10110000370390913803892B19F420E030E004C0B4
:101110002091390330913A03C90108958091370332
:1011200090913803892B29F410923A0310923903D5
:1011300008950E943103BC01E0913703F091380318
:101140004281538180819181480F591F461B570B63
:101150000CC02281338180819181280F391F261B89
:10116000370B2417350708F4A9010480F581E02D19
:10117000309779F7460F571F50933A03409339033E
:101180000895CF93DF93EC01E0913703F09138039A
:101190008E179F0741F48C819D8190933803809333
:1011A000370314C0FC01309731F0848195818C178E
:1011B0009D07C1F707C01D821C821F821E82DF911E
:1011C000CF9108958C819D81958384830E948E08A0
:1011D000F2CFFC0180819181860F971F91838083DC
:1011E0000E948E0808958DEC91E00E948207089578
:1011F000EF92FF920F931F93CF93DF937C01FC013B
:1012000080819181009729F08A35910509F06DC0A0
:101210000BC010923803109237038AE590E0F70173
:101220009183808381E065C0673849F59A01E09138
:101230003703F091380303C00480F581E02D309727
:1012400041F38681978182179307B1F3E0933703C7
:10125000F09338030FC016968D919C9117978217C3
:10126000930711F0FD0106C014968D919C9115977E
:1012700095838483A481B581109769F7CECF6238B6
:1012800061F6C0913703D091380300E010E02AC026
:10129000CE010E94AE01892B01F18E819F8168E809
:1012A000AE010E941B07892BA1F41F821E828C8134
:1012B0009D810115110521F0F8019583848304C0F7
:1012C00090933803809337031D821C820E948E08FE
:1012D000D8CF8DEC91E00E9482078E018C819D8198
:1012E0009C01E9012097A1F698CFF70111821082A5
:1012F00083E0DF91CF911F910F91FF90EF900895C0
:10130000CF93DF93EC018DEC91E00E9482078E81F8
:101310009F81892B69F0E0913703F091380306C073
:10132000EC17FD07A9F00480F581E02D3097C1F797
:101330008091F9019091FA019F838E838091370308
:10134000909138039D838C83D0933803C0933703E7
:101350000E948E08DF91CF9108950F931F938C0107
:101360000E94C601C8010E9480091F910F91089533
:101370000F931F938C010E948F01C8010E94800966
:101380001F910F9108950F931F938C010E94D1011B
:10139000C8010E9480091F910F910895FC0171837B
:1013A000608341504283138214820895DC011396B6
:1013B0008C91139712962C91129730E0482F50E0A1
:1013C00014968C911497FA01E81BF109CF0182233E
:1013D00093238217930719F420E030E012C0ED91B7
:1013E000FC911197E40FF51F608313968C9113976E
:1013F0008F5F12969C911297892313968C9321E00C
:1014000030E0C9010895DC0114964C9114971296AE
:101410005C91129713968C91139790E0642F70E073
:10142000861B970B252F30E082239323181619066D
:101430001CF02FEF3FEF0CC0ED91FC911197E60FE0
:10144000F71F80814F5F452314964C93282F30E07F
:10145000C9010895FC01228130E02F5F3F4FC9018F
:101460000895FC01238130E08481281B31098281A9
:1014700090E028233923C90108951F920F920FB6D7
:101480000F9211242F933F934F935F936F937F930A
:101490008F939F93AF93BF93EF93FF938091C60079
:1014A000E0914B03F0914C03309709F00995FF91BF
:1014B000EF91BF91AF919F918F917F916F915F91CC
:1014C0004F913F912F910F900FBE0F901F90189545
:1014D000882369F41092C5006093C40088E9809362
:1014E000C1004093C20010924C0310924B03089528
:1014F000882331F48091C00085FFFCCF6093C60043
:101500000895882321F470934C0360934B0308954E
:10151000282FFB0131963DE016C09A3049F4222372
:1015200049F48091C00085FFFCCF3093C60002C013
:101530009D3041F0222331F48091C00085FFFCCF23
:101540009093C600319692913196992331F7089580
:10155000982F8091C00085FFFCCF9093C60008951E
:10156000982F8A3061F480913B03882351F4809155
:10157000C00085FFFCCF8DE08093C60002C08D3097
:1015800051F080913B03882331F48091C00085FFA6
:10159000FCCF9093C60080E090E0089580933B03D9
:1015A00085ED91E09093500380934F030895682F49
:1015B00062708DE00E94C10208958DE00E94F402E5
:1015C000892B11F082E0089580E008958DE061E0BC
:1015D0000E9455020895FB01DC014150504030F05B
:1015E0008D910190801919F40020B9F7881B990B8F
:1015F0000895A0E0B0E0EFEFFAE00C94E10DFE01F9
:10160000359661917191A0914F03B091500313965B
:101610008C911397886013968C9380914F039091CF
:101620005003AF010E94540BE0914F03F09150031F
:101630002381277F23832096E2E00C94FD0D0F93F6
:101640001F93CF93DF938C01E0914F03F0915003F0
:10165000838181FF21C0C0E0D0E00DC0E0914F0345
:10166000F091500320853185BF01F9010995892B3F
:1016700011F0CFEFDFEFF80181918F01882371F72F
:10168000E0914F03F0915003208531858AE0BF013E
:10169000F9010995892B11F0CFEFDFEFCE01DF9132
:1016A000CF911F910F910895ABE0B0E0EAE5FBE028
:1016B0000C94D10D3C012B015A01FC0117821682BA
:1016C000838181FD03C06FEF7FEFC6C19AE0892E51
:1016D0001E010894211C311CF3012381F20123FD1A
:1016E000859123FF81912F01882309F4B2C18532AE
:1016F00039F423FD859123FF81912F01853229F44F
:1017000090E0B3010E94470DE7CF982FFF24EE240D
:101710009924FFE1FF15D0F09B3269F09C3228F448
:10172000903259F0933291F40EC09D3249F09033CB
:1017300069F441E024C052E0F52A84E0F82A28C088
:1017400098E0F92A25C0E0E1FE2A22C0F7FC29C072
:10175000892F80538A3070F4F6FE05C0989C902C37
:101760001124980E15C0E89CE02C1124E80EF0E23C
:10177000FF2A0EC09E3229F4F6FC6BC140E4F42A25
:1017800007C09C3619F450E8F52A02C0983649F48F
:10179000F20123FD959123FF91912F01992309F0E7
:1017A000B8CF892F8554833018F08052833038F4B5
:1017B00044E050E0A40EB51E5FE359830FC093369A
:1017C00031F0933779F0933509F056C020C0F50118
:1017D0008081898342E050E0A40EB51E610101E0E2
:1017E00010E012C0F501C080D180F6FC03C06FEF9D
:1017F0007FEF02C0692D70E042E050E0A40EB51EFC
:10180000C6010E943C0D8C015FE7F52214C0F50172
:10181000C080D180F6FC03C06FEF7FEF02C0692D5E
:1018200070E042E050E0A40EB51EC6010E94310DEA
:101830008C0150E8F52AF3FE07C01AC080E290E060
:10184000B3010E94470DEA948E2D90E00817190706
:10185000A8F30EC0F601F7FC8591F7FE81916F01A8
:1018600090E0B3010E94470DE110EA94015010404E
:101870000115110579F7EAC0943611F0993669F52A
:10188000F7FE08C0F501208131814281538184E057
:1018900090E00AC0F501808191819C01442737FDC9
:1018A0004095542F82E090E0A80EB91E9FE6F922E1
:1018B00057FF09C050954095309521953F4F4F4FA8
:1018C0005F4FE0E8FE2ACA01B901A1012AE030E039
:1018D0000E94730DD82ED21840C0953729F41F2DC1
:1018E0001F7E2AE030E01DC01F2D197F9F3661F05A
:1018F000903720F4983509F0ACC00FC0903739F01C
:10190000983709F0A6C004C028E030E00AC0106192
:1019100014FD146020E130E004C014FD166020E1E5
:1019200032E017FF08C0F5016081718182819381E7
:1019300044E050E008C0F50180819181BC0180E065
:1019400090E042E050E0A40EB51EA1010E94730D8C
:10195000D82ED2188FE7F82EF122F6FE0BC05EEFDC
:10196000F522D91438F4F4FE07C0F2FC05C08FEE5E
:10197000F82202C01D2D01C0192DF4FE0DC0FE017C
:10198000ED0DF11D8081803319F499EEF92208C024
:101990001F5FF2FE05C003C08F2D867809F01F5F20
:1019A0000F2DF3FC14C0F0FE0FC01E1510F09D2C7F
:1019B0000BC09D2C9E0C911A1E2D06C080E290E05B
:1019C000B3010E94470D1F5F1E15C0F304C01E1512
:1019D00010F4E11A01C0EE2404FF0FC080E390E090
:1019E000B3010E94470D02FF1DC001FD03C088E73F
:1019F00090E00EC088E590E00BC0802F867891F0D3
:101A000001FF02C08BE201C080E2F7FC8DE290E0B2
:101A1000B3010E94470D06C080E390E0B3010E942D
:101A2000470D9A94D914C0F3DA94F101ED0DF11D2C
:101A3000808190E0B3010E94470DDD20A9F706C028
:101A400080E290E0B3010E94470DEA94EE20C1F7D6
:101A500043CEF30166817781CB012B96E2E10C94B2
:101A6000ED0DFC010590615070400110D8F7809594
:101A700090958E0F9F1F0895FC016150704001905A
:101A80000110D8F7809590958E0F9F1F08950F93A2
:101A90001F93CF93DF938C01EB018B8181FF1BC0E0
:101AA00082FF0DC02E813F818C819D8128173907CF
:101AB00064F4E881F9810193F983E88306C0E8853D
:101AC000F985802F0995892B31F48E819F810196AC
:101AD0009F838E8302C00FEF1FEFC801DF91CF916C
:101AE0001F910F910895FA01AA27283051F1203152
:101AF00081F1E8946F936E7F6E5F7F4F8F4F9F4FA2
:101B0000AF4FB1E03ED0B4E03CD0670F781F891FE3
:101B10009A1FA11D680F791F8A1F911DA11D6A0FB1
:101B2000711D811D911DA11D20D009F468943F9164
:101B30002AE0269F11243019305D3193DEF6CF0163
:101B40000895462F4770405D4193B3E00FD0C9F729
:101B5000F6CF462F4F70405D4A3318F0495D31FD96
:101B60004052419302D0A9F7EACFB4E0A6959795E9
:101B7000879577956795BA95C9F7009761057105BF
:101B800008959B01AC010A2E069457954795379509
:101B90002795BA95C9F7620F731F841F951FA01D63
:101BA00008952F923F924F925F926F927F928F9201
:101BB0009F92AF92BF92CF92DF92EF92FF920F93DC
:101BC0001F93CF93DF93CDB7DEB7CA1BDB0B0FB6E6
:101BD000F894DEBF0FBECDBF09942A8839884888A3
:101BE0005F846E847D848C849B84AA84B984C88439
:101BF000DF80EE80FD800C811B81AA81B981CE0F30
:101C0000D11D0FB6F894DEBF0FBECDBFED01089514
:041C1000F894FFCF76
:101C14002A2A2A2057616974696E6720666F7220C8
:101C24006D6F74696F6E206576656E742021002A6D
:101C34002A2A2050726573656E6365206465746535
:101C44006374656421002A2A2A2050726573656EC4
:101C54006365206E6F6E6520210000009B0000000C
:101C640000004A0100002A2A2A20436F6E66696731
:101C7400202E2E2E2E21002A2A2A20436F6E6669DA
:101C840067204552524F5221002A2A2A20436F6E60
:101C9400666967204F4B2021002A2A2A20436F6E51
:101CA400666967204F4B002A2A2A2056616C7565A5
:101CB400202E2E2E2E210050495200A7014B01F355
:101CC40000E600AB010000CD01C50100000000D515
:101CD40004000000000000C407000000000000F839
:101CE40008000000000000000200000000B00A002C
:041CF40000000000EC
:00000001FF
