:100000000C947C000C9499000C9499000C94990029
:100010000C9499000C9499000C9499000C949900FC
:100020000C9499000C9499000C9499000C949900EC
:100030000C9499000C9499000C9491030C949900E1
:100040000C9499000C9499000C9455070C94990009
:100050000C9499000C9499000C9499000C949900BC
:100060000C9499000C94990053797374656D206F0A
:100070006E6C696E652E0D0A000D0A2A2A2A2A2A3C
:100080002A2A2A424F4F54494E4720434F4E544943
:100090004B492A2A2A2A2A2A2A2A2A0D0A0000003B
:1000A0000000240027002A0000000000250028008E
:1000B0002B00000000002300260029000404040493
:1000C0000404040402020202020203030303030302
:1000D00001020408102040800102040810200102DF
:1000E00004081020000000070002010000030406BD
:1000F000000000000000000011241FBECFEFD8E078
:10010000DEBFCDBF11E0A0E0B1E0E6E8F7E102C05C
:1001100005900D92A437B107D9F712E0A4E7B1E03A
:1001200001C01D92A23EB107E1F70E94A3020C9408
:10013000C10B0C940000CF93DF93EC01888199816F
:10014000009721F083359105A1F50BC084E791E07C
:1001500060E071E00E948A0283E590E099838883E1
:1001600002C0683811F081E027C00E94EC0300D083
:1001700000D000D0EDB7FEB7319620E031E0ADB74A
:10018000BEB712963C932E93119722E030E0338352
:100190002283848315820E94D2088DB79EB706966B
:1001A0000FB6F8949EBF0FBE8DBF82E00E94D203AF
:1001B000CDCF1982188283E0DF91CF910895CF933C
:1001C000DF93EC0188819981009719F0C197A9F517
:1001D00010C08EE791E060E074E00E948A02109205
:1001E0007D0110927C0181E390E09983888381E016
:1001F00027C06838C1F700D000D082E291E0EDB7A7
:10020000FEB79283818380917C0190917D019483DC
:1002100083830E94D20880917C0190917D01019698
:1002200090937D0180937C010F900F900F900F9021
:100230008EE791E00E947F02D6CF1982188283E078
:10024000DF91CF91089520E030E0FC018681978115
:10025000892B11F421E030E0C9010895FC012281CD
:10026000338180819181280F391FC9010895FC01D4
:100270008081918108952091860130918701211517
:10028000310511F021E030E0C90108958091860127
:1002900090918701892B19F420E030E004C020916F
:1002A000880130918901C90108958091860190915A
:1002B0008701892B29F410928901109288010895F1
:1002C0000E94D502BC01E0918601F0918701428134
:1002D000538180819181480F591F461B570B0CC0D9
:1002E0002281338180819181280F391F261B370B92
:1002F0002417350708F4A9010480F581E02D309713
:1003000079F7460F571F509389014093880108954C
:10031000CF93DF93EC01E0918601F09187018E1776
:100320009F0741F48C819D81909387018093860182
:1003300014C0FC01309731F0848195818C179D07A2
:10034000C1F707C01D821C821F821E82DF91CF91E0
:1003500008958C819D81958384830E945501F2CFFD
:10036000FC0180819181860F971F918380830E9479
:100370005501089580E591E00E94BC050895EF9233
:10038000FF920F931F93CF93DF937C01FC01808139
:100390009181009729F08A35910509F06DC00BC055
:1003A00010928701109286018AE590E0F70191830F
:1003B000808381E065C0673849F59A01E091860144
:1003C000F091870103C00480F581E02D309741F35F
:1003D0008681978182179307B1F3E0938601F093AA
:1003E00087010FC016968D919C91179782179307DE
:1003F00011F0FD0106C014968D919C91159795837F
:100400008483A481B581109769F7CECF623861F6F5
:10041000C0918601D091870100E010E02AC0CE0192
:100420000E94B506892B01F18E819F8168E8AE019B
:100430000E945505892BA1F41F821E828C819D810B
:100440000115110521F0F8019583848304C0909370
:100450008701809386011D821C820E945501D8CF9E
:1004600080E591E00E94BC058E018C819D819C01FC
:10047000E9012097A1F698CFF7011182108283E05D
:10048000DF91CF911F910F91FF90EF900895CF933F
:10049000DF93EC0180E591E00E94BC058E819F8195
:1004A000892B69F0E0918601F091870106C0EC1775
:1004B000FD07A9F00480F581E02D3097C1F7809108
:1004C0009101909192019F838E83809186019091FA
:1004D00087019D838C83D0938701C09386010E94FE
:1004E0005501DF91CF9108950F931F938C010E94C6
:1004F000CD06C8010E9447021F910F9108950F93E6
:100500001F938C010E949606C8010E9447021F910A
:100510000F9108950F931F938C010E94D806C80174
:100520000E9447021F910F91089580E067E646E020
:100530000E94800780E00E94E60780E060E776E0A6
:100540000E94990708950E9495020E94C8020E9485
:10055000B2040E94D2052D980E9462068AE491E0BE
:100560000E94EF0500D089E790E0EDB7FEB79283D7
:1005700081830E94E70888E690E0EDB7FEB792839A
:1005800081830E94E7080F900F900E94E304FDCF43
:10059000F89416BC83EF87BD92E094BD84E085BDDE
:1005A00015BA90936E007894089520918A01309145
:1005B0008B0180918A0190918B0128173907A9F747
:1005C000C90108952091D4023091D5024091D602FC
:1005D0005091D7028091D4029091D502A091D60279
:1005E000B091D702281739074A075B0759F7B901B5
:1005F000CA0108956093D4027093D5028093D60205
:100600009093D7020895AC0120918A0130918B011B
:1006100080918A0190918B0128173907A9F7420F21
:10062000531F20918A0130918B0180918A01909112
:100630008B0128173907A9F7241B350B37FDF1CF9C
:100640000895009731F0880F991F880F991F01971F
:10065000F1F7089520EA3FE004C0F9013197F1F77E
:1006600001970097D1F70895EF92FF920F931F9390
:100670006FB7F89420918A0130918B01280F391FB0
:1006800030938B0120938A0120918C01AC01420FA1
:10069000511DE090D002F090D1020091D202109151
:1006A000D3029A0115C0205031408091D40290911C
:1006B000D502A091D602B091D7020196A11DB11D1D
:1006C0008093D4029093D502A093D602B093D70220
:1006D0002F3F310509F038F7252F3327C901A0E056
:1006E000B0E08E0D9F1DA01FB11F8093D00290938C
:1006F000D102A093D202B093D30280E09FEFFC011D
:100700002E9FC0012F9F900D3E9F900D1124840FAE
:10071000951F80938C016FBF1F910F91FF90EF90F9
:1007200008951F920F920FB60F9211242F933F93AB
:100730004F935F936F937F938F939F93AF93BF93E9
:10074000EF93FF9380918A0190918B010196909392
:100750008B0180938A0180918C018F5F80938C0143
:100760000E943B01892B11F00E94BA01FF91EF9189
:10077000BF91AF919F918F917F916F915F914F91B9
:100780003F912F910F900FBE0F901F901895909151
:100790008E01982790938E0180918D0189270E9468
:1007A000EF0708950E94C7030895809590918D01E9
:1007B000892380938D0190918E0189270E94EF07F4
:1007C000089590918D01982B90938D0180918E01C9
:1007D00089270E94EF0708950E94F50708951F9347
:1007E00010918E0180918D0118271095812F0E9404
:1007F000C7038CE694E00E942103812F0E94C70367
:100800001F9108950E94FE0710928E0110928D0193
:10081000089580919B018F5F80939B018150089583
:100820001F93CF93DF93EC01162F8E8180FF1EC0A4
:100830008A819B81892BD1F0D0939201C093910141
:1008400082E08E83EA81FB81CE0104960995992787
:1008500087FD90950297029710F0133829F4CE0186
:10086000BE010E943A0402C081E08E83DF91CF91E5
:100870001F910895CF92DF92EF92FF920F931F93F3
:10088000CF93DF93EC017B01C0909101D090920156
:10089000E0918F01F091900103C00190F081E02D73
:1008A000EC17FD0719F03097C1F74CC0209709F4F9
:1008B00049C08E81882339F11E8200918F011091E9
:1008C00090010BC0C017D10729F0C80167E8AE013D
:1008D0000E941004F801008111810115110591F7A2
:1008E0008A819B81892B79F0CE15DF0561F0D09349
:1008F0009201C0939101EA81FB81CE01049663E8E5
:1009000040E050E00995E0918F01F0919001CE1701
:10091000DF0791F4888199819093900180938F01F2
:100920000DC0808191818C179D0729F48881998160
:100930009183808303C0FC01309799F7D092920194
:10094000C0929101DF91CF911F910F91FF90EF9095
:10095000DF90CF90089560919101709192010E9473
:100960003A0408958AE880939B0110929D011092A9
:100970009C011092D8021092900110928F01109257
:1009800092011092910108951F93CF93DF931092DB
:10099000C601C0918F01D091900111E00EC08F81EE
:1009A000882341F01E831F82CE0162E840E050E0C0
:1009B0000E9410040990D881C02D209781F7DF9103
:1009C000CF911F9108958091C601882311F00E9454
:1009D000C40420919C01222309F455C080919D01FB
:1009E00090E0FC01EE0FFF1FEE0FFF1FE80FF91F55
:1009F000E256FE4F608160939A014181528150938B
:100A00009901409398010380F481E02DF0939701C0
:100A1000E093960101968770907080939D0121501C
:100A200020939C01309741F580918F019091900126
:100A300018C08091C601882311F00E94C40440911F
:100A40009801509199018091940190919501609144
:100A50009A010E941004E0919401F0919501808127
:100A6000918190939501809394018091940190914C
:100A70009501892BF1F607C0613811F481E0868376
:100A8000CF010E9410048091C60120919C0130E0AA
:100A9000280F311DC90108958091C60120919C0144
:100AA00030E0280F311DC9010895DC0120919C011F
:100AB000283019F421E030E021C080919D01820F9F
:100AC00087708093930190E0FC01EE0FFF1FEE0F03
:100AD000FF1FE80FF91FE256FE4F608352834183E8
:100AE000B483A383922F9F5F90939C018091D8023F
:100AF000891710F49093D80220E030E0C9010895DE
:100B00000F931F9300919101109192010E94100484
:100B100010939201009391011F910F910895CF932B
:100B2000DF93DC01EB0160918F0140919001862FF2
:100B3000942F9C01F90103C00190F081E02DEA1788
:100B4000FB07B9F03097C1F76C9311964C9311974E
:100B5000B0939001A0938F0181E016968C93169725
:100B600015961C921E921497CD0161E8AE010E9469
:100B70008005DF91CF910895FC01009741F08681B7
:100B80008150823020F481E087838093C6010895EC
:100B900020E030E0FC018681882311F021E030E084
:100BA000C9010895CF93DF93C8E5D1E004C060E0A8
:100BB00070E00E948F05899199910097C1F7DF91AC
:100BC000CF910895CF93DF93EC0102C00E94AB0454
:100BD000899199910097D1F7DF91CF910895CF93A3
:100BE000DF93EC0104C060E070E00E948F05899102
:100BF00099910097C1F7DF91CF910895CF93DF933B
:100C0000EC01888199818836910579F08A379105C0
:100C100009F44FC0892B09F04FC00E94090480934A
:100C2000D9021092C8011092C7018AE492E00E9492
:100C30001B072FEF8F3F920719F488E690E035C02D
:100C40002091C7013091C8018A30910571F02F378A
:100C500031055CF7F901E753FE4F80832F5F3F4F6B
:100C60003093C8012093C701E0CFF901E753FE4F4D
:100C700010822F5F3F4F3093C8012093C70180E05F
:100C800090E06091D90249EC51E00E9455058091B5
:100C900091019091920165E840E050E00E94550575
:100CA000892B09F0BECF8AE790E09983888381E0A1
:100CB00006C06538E1F7B5CF1982188283E0DF916D
:100CC000CF9108958AE492E06FE472E040E80E94D8
:100CD000E6068EE591E060E070E00E948F050895E1
:100CE000682F8D3019F420E030E01EC08091490259
:100CF000882351F48AE492E00E94EE06892B71F475
:100D000081E0809349020AC06A3041F48AE492E0AB
:100D10000E94EE06892B11F0109249028EE591E0B7
:100D20000E94BC0521E030E0C9010895FC018081EA
:100D3000918122813381820F931F91838083089553
:100D4000EF92FF920F931F93FC01E080F1800281EC
:100D500013810E94D5020E0D1F1D081B190BC8011F
:100D60001F910F91FF90EF9008950F931F938C01A7
:100D70000E94D50240E050E0F80120813181821BC1
:100D8000930B0196228133812817390710F441E033
:100D900050E0CA011F910F9108950F931F938C018A
:100DA0000E94D502F801918380831F910F910895CD
:100DB0000F931F938C01FC01738362830E94D50201
:100DC000F801918380831F910F910895FC01718335
:100DD000608341504283138214820895DC0113968C
:100DE0008C91139712962C91129730E0482F50E077
:100DF00014968C911497FA01E81BF109CF01822314
:100E000093238217930719F420E030E012C0ED918C
:100E1000FC911197E40FF51F608313968C91139743
:100E20008F5F12969C911297892313968C9321E0E1
:100E300030E0C9010895DC0114964C911497129684
:100E40005C91129713968C91139790E0642F70E049
:100E5000861B970B252F30E0822393231816190643
:100E60001CF02FEF3FEF0CC0ED91FC911197E60FB6
:100E7000F71F80814F5F452314964C93282F30E055
:100E8000C9010895FC01228130E02F5F3F4FC90165
:100E90000895FC01238130E08481281B310982817F
:100EA00090E028233923C90108951F920F920FB6AD
:100EB0000F9211242F933F934F935F936F937F93E0
:100EC0008F939F93AF93BF93EF93FF938091C6004F
:100ED000E091DA02F091DB02309709F00995FF9179
:100EE000EF91BF91AF919F918F917F916F915F91A2
:100EF0004F913F912F910F900FBE0F901F9018951B
:100F0000882369F41092C5006093C40088E9809337
:100F1000C1004093C2001092DB021092DA020895E1
:100F2000882331F48091C00085FFFCCF6093C60018
:100F30000895882321F47093DB026093DA02089508
:100F4000282FFB0131963DE016C09A3049F4222348
:100F500049F48091C00085FFFCCF3093C60002C0E9
:100F60009D3041F0222331F48091C00085FFFCCFF9
:100F70009093C600319692913196992331F7089556
:100F8000982F8091C00085FFFCCF9093C6000895F4
:100F9000982F8A3061F48091CF02882351F4809198
:100FA000C00085FFFCCF8DE08093C60002C08D306D
:100FB00051F08091CF02882331F48091C00085FFE9
:100FC000FCCF9093C60080E090E008958093CF021C
:100FD00086E691E09093DF028093DE020895682F09
:100FE00062708DE00E946F0808958DE00E94A20853
:100FF000892B11F082E0089580E008958DE061E092
:101000000E9403080895CF93DF93482F50E0CA0150
:1010100080539F4FFC01349144545F4FFA018491F7
:10102000882369F190E0880F991FFC01E256FF4F79
:10103000A591B491FC01E855FF4FC591D491662369
:1010400051F42FB7F8948C91932F909589238C931A
:10105000888189230BC0623061F42FB7F8948C919A
:10106000932F909589238C938881832B88832FBF1E
:1010700006C09FB7F8948C91832B8C939FBFDF9110
:10108000CF910895833071F0843028F48130A1F03D
:10109000823021F514C08630B1F08730D1F0843031
:1010A000E9F404C0809180008F7703C080918000B4
:1010B0008F7D80938000089584B58F7702C084B5BA
:1010C0008F7D84BD08958091B0008F778093B000AC
:1010D00008958091B0008F7D8093B0000895FF92B5
:1010E0000F931F93F62E482F50E0CA018C519F4F4B
:1010F000FC012491CA0180539F4FFC011491445478
:101100005F4FFA0104910023C9F0222319F0822FC6
:101110000E944208E02FF0E0EE0FFF1FE855FF4F5E
:10112000A591B4919FB7F894FF2021F48C9110956C
:10113000812302C08C91812B8C939FBF1F910F91B3
:10114000FF9008950F931F93482F50E0CA018C51D0
:101150009F4FFC012491CA0180539F4FFC010491D1
:1011600044545F4FFA011491112319F420E030E048
:1011700015C0222319F0822F0E944208812F90E08F
:10118000880F991F8E549F4FFC01A591B4918C91AB
:1011900020E030E0802311F021E030E0C9011F9110
:1011A0000F910895A0E0B0E0E8EDF8E00C949A0B00
:1011B000FE013596619171918091DE029091DF027E
:1011C000AF010E940D092096E2E00C94B60BA0E05E
:1011D000B0E0EDEEF8E00C949A0BFE0135966191CB
:1011E0007191A091DE02B091DF0213968C9113975A
:1011F000886013968C938091DE029091DF02AF019C
:101200000E940D09E091DE02F091DF022381277F29
:1012100023832096E2E00C94B60BABE0B0E0E3E170
:10122000F9E00C948A0B3C012B015A01FC01178256
:101230001682838181FD03C06FEF7FEFC6C19AE004
:10124000892E1E010894211C311CF3012381F20117
:1012500023FD859123FF81912F01882309F4B2C1D9
:10126000853239F423FD859123FF81912F01853249
:1012700029F490E0B3010E94000BE7CF982FFF24E0
:10128000EE249924FFE1FF15D0F09B3269F09C32E7
:1012900028F4903259F0933291F40EC09D3249F007
:1012A000903369F441E024C052E0F52A84E0F82A42
:1012B00028C098E0F92A25C0E0E1FE2A22C0F7FC08
:1012C00029C0892F80538A3070F4F6FE05C0989C9F
:1012D000902C1124980E15C0E89CE02C1124E80EE7
:1012E000F0E2FF2A0EC09E3229F4F6FC6BC140E406
:1012F000F42A07C09C3619F450E8F52A02C0983643
:1013000049F4F20123FD959123FF91912F01992337
:1013100009F0B8CF892F8554833018F0805283307C
:1013200038F444E050E0A40EB51E5FE359830FC0CB
:10133000933631F0933779F0933509F056C020C0D9
:10134000F5018081898342E050E0A40EB51E610161
:1013500001E010E012C0F501C080D180F6FC03C0AE
:101360006FEF7FEF02C0692D70E042E050E0A40E05
:10137000B51EC6010E94F50A8C015FE7F52214C074
:10138000F501C080D180F6FC03C06FEF7FEF02C093
:10139000692D70E042E050E0A40EB51EC6010E9427
:1013A000EA0A8C0150E8F52AF3FE07C01AC080E271
:1013B00090E0B3010E94000BEA948E2D90E0081794
:1013C0001907A8F30EC0F601F7FC8591F7FE81918D
:1013D0006F0190E0B3010E94000BE110EA9401500C
:1013E00010400115110579F7EAC0943611F09936CD
:1013F00069F5F7FE08C0F5012081318142815381F2
:1014000084E090E00AC0F501808191819C0144272D
:1014100037FD4095542F82E090E0A80EB91E9FE65C
:10142000F92257FF09C050954095309521953F4FBF
:101430004F4F5F4FE0E8FE2ACA01B901A1012AE03F
:1014400030E00E942C0BD82ED21840C0953729F4DA
:101450001F2D1F7E2AE030E01DC01F2D197F9F36F3
:1014600061F0903720F4983509F0ACC00FC0903788
:1014700039F0983709F0A6C004C028E030E00AC06F
:10148000106114FD146020E130E004C014FD16600A
:1014900020E132E017FF08C0F5016081718182818F
:1014A000938144E050E008C0F50180819181BC0146
:1014B00080E090E042E050E0A40EB51EA1010E9441
:1014C0002C0BD82ED2188FE7F82EF122F6FE0BC087
:1014D0005EEFF522D91438F4F4FE07C0F2FC05C023
:1014E0008FEEF82202C01D2D01C0192DF4FE0DC093
:1014F000FE01ED0DF11D8081803319F499EEF92282
:1015000008C01F5FF2FE05C003C08F2D867809F06A
:101510001F5F0F2DF3FC14C0F0FE0FC01E1510F05E
:101520009D2C0BC09D2C9E0C911A1E2D06C080E296
:1015300090E0B3010E94000B1F5F1E15C0F304C0B2
:101540001E1510F4E11A01C0EE2404FF0FC080E361
:1015500090E0B3010E94000B02FF1DC001FD03C01B
:1015600088E790E00EC088E590E00BC0802F867879
:1015700091F001FF02C08BE201C080E2F7FC8DE236
:1015800090E0B3010E94000B06C080E390E0B3013D
:101590000E94000B9A94D914C0F3DA94F101ED0D76
:1015A000F11D808190E0B3010E94000BDD20A9F7BE
:1015B00006C080E290E0B3010E94000BEA94EE20A6
:1015C000C1F743CEF30166817781CB012B96E2E12F
:1015D0000C94A60BFC010590615070400110D8F7E7
:1015E000809590958E0F9F1F0895FC01615070406B
:1015F00001900110D8F7809590958E0F9F1F089548
:101600000F931F93CF93DF938C01EB018B8181FFAD
:101610001BC082FF0DC02E813F818C819D812817C8
:10162000390764F4E881F9810193F983E88306C0FE
:10163000E885F985802F0995892B31F48E819F816A
:1016400001969F838E8302C00FEF1FEFC801DF91C9
:10165000CF911F910F910895FA01AA27283051F1D7
:10166000203181F1E8946F936E7F6E5F7F4F8F4FD3
:101670009F4FAF4FB1E03ED0B4E03CD0670F781F32
:10168000891F9A1FA11D680F791F8A1F911DA11D17
:101690006A0F711D811D911DA11D20D009F4689450
:1016A0003F912AE0269F11243019305D3193DEF6F8
:1016B000CF010895462F4770405D4193B3E00FD0AE
:1016C000C9F7F6CF462F4F70405D4A3318F0495D99
:1016D00031FD4052419302D0A9F7EACFB4E0A6957C
:1016E0009795879577956795BA95C9F7009761059E
:1016F000710508959B01AC010A2E069457954795F4
:1017000037952795BA95C9F7620F731F841F951FE8
:10171000A01D08952F923F924F925F926F927F92F9
:101720008F929F92AF92BF92CF92DF92EF92FF92F1
:101730000F931F93CF93DF93CDB7DEB7CA1BDB0B9D
:101740000FB6F894DEBF0FBECDBF09942A88398842
:1017500048885F846E847D848C849B84AA84B98449
:10176000C884DF80EE80FD800C811B81AA81B98155
:10177000CE0FD11D0FB6F894DEBF0FBECDBFED0169
:061780000895F894FFCF6C
:10178600426C696E6B204C4544202564202E2E2E1B
:10179600202873746174652025302E3258292E0D49
:1017A6000A0053656E736F722073617973206E6FD2
:1017B6002E2E2E202325640D0A000000DF000000D7
:1017C600000000009B00000000003A0142010000FA
:1017D6000000BF010000000050015E010000000093
:1017E600FE05000000000000000200000000C8071F
:0417F60000000000EF
:00000001FF
