:100000000C947C000C9499000C9499000C94990029
:100010000C9499000C9499000C9499000C949900FC
:100020000C9499000C9499000C9499000C949900EC
:100030000C9499000C9499000C94CE040C949900A3
:100040000C9499000C9499000C9469090C949900F3
:100050000C9499000C9499000C9499000C949900BC
:100060000C9499000C94990053797374656D206F0A
:100070006E6C696E652E0D0A000D0A2A2A2A2A2A3C
:100080002A2A2A424F4F54494E4720434F4E544943
:100090004B492A2A2A2A2A2A2A2A2A0D0A0000003B
:1000A0000000240027002A0000000000250028008E
:1000B0002B00000000002300260029000404040493
:1000C0000404040402020202020203030303030302
:1000D00001020408102040800102040810200102DF
:1000E00004081020000000070002010000030406BD
:1000F000000000000000000011241FBECFEFD8E078
:10010000DEBFCDBF11E0A0E0B1E0EEE6FAE102C053
:1001100005900D92A23BB107D9F713E0A2EBB1E035
:1001200001C01D92A132B107E1F70E940B030C94AC
:10013000350D0C9400000F931F93DF93CF9300D0E5
:10014000CDB7DEB78C01FC0180819181009729F049
:100150008634910509F044C015C0E0918201F09108
:10016000830181E890E061E070E0099582EB91E025
:1001700060E07EE10E94F20286E490E0F801918363
:10018000808306C082EB91E00E948B01892B11F4E1
:1001900081E02AC08FEF9FEF9A838983CE01019679
:1001A0000E943601882311F729813A81FFEF2F3F02
:1001B0003F0789F000D000D080E091E0EDB7FEB7B6
:1001C00092838183348323830E94110A0F900F90BE
:1001D0000F900F90CBCF85E191E00E944C0AC6CFE3
:1001E000F8011182108283E00F900F90CF91DF9180
:1001F0001F910F910895E3ECF0E0E4919E2F92950A
:10020000907F80E0AA2797FDA095BA2F80509E4F3F
:10021000AD4FBF4BFC012081318142815381C90127
:10022000089581589040029718F020E030E004C013
:100230002091BA013091BB01C9010895813891051F
:1002400019F02FEF3FEF10C087E060E00E94360307
:100250001092BD011092BC0181E090E09093BB012F
:100260008093BA0120E030E0C90108950F931F93F5
:100270008C0187E00E94D503F80191838083E3EC31
:10028000F0E0E4919E2F9295907F80E0AA2797FD61
:10029000A095BA2F80509E4FAD4FBF4BFC012081DF
:1002A00031814281538100D000D000D087E491E0B9
:1002B000EDB7FEB7928381832383348345835683CE
:1002C0000E94110A8DB79EB706960FB6F8949EBF8E
:1002D0000FBE8DBF87E00E94D50300D000D02AE575
:1002E00031E0EDB7FEB732832183948383830E948C
:1002F000110A8AE691E0EDB7FEB7928381831483F9
:1003000003830E94110A0F900F900F900F9080E0CE
:100310001F910F91089520E030E0FC0186819781C4
:10032000892B11F421E030E0C9010895FC012281FC
:10033000338180819181280F391FC9010895FC0103
:100340008081918108952091BE013091BF012115D6
:10035000310511F021E030E0C90108958091BE011E
:100360009091BF01892B19F420E030E004C0209166
:10037000C0013091C101C90108958091BE019091E1
:10038000BF01892B29F41092C1011092C001089578
:100390000E941204BC01E091BE01F091BF014281B4
:1003A000538180819181480F591F461B570B0CC008
:1003B0002281338180819181280F391F261B370BC1
:1003C0002417350708F4A9010480F581E02D309742
:1003D00079F7460F571F5093C1014093C00108950C
:1003E000CF93DF93EC01E091BE01F091BF018E1736
:1003F0009F0741F48C819D819093BF018093BE0142
:1004000014C0FC01309731F0848195818C179D07D1
:10041000C1F707C01D821C821F821E82DF91CF910F
:1004200008958C819D81958384830E94BD01F2CFC4
:10043000FC0180819181860F971F918380830E94A8
:10044000BD01089586E891E00E94D0070895EF92DB
:10045000FF920F931F93CF93DF937C01FC01808168
:100460009181009729F08A35910509F06DC00BC084
:100470001092BF011092BE018AE590E0F7019183CE
:10048000808381E065C0673849F59A01E091BE013B
:10049000F091BF0103C00480F581E02D309741F356
:1004A0008681978182179307B1F3E093BE01F093A1
:1004B000BF010FC016968D919C91179782179307D5
:1004C00011F0FD0106C014968D919C9115979583AE
:1004D0008483A481B581109769F7CECF623861F625
:1004E000C091BE01D091BF0100E010E02AC0CE0152
:1004F0000E94C908892B01F18E819F8168E8AE01B5
:100500000E946907892BA1F41F821E828C819D8124
:100510000115110521F0F8019583848304C090939F
:10052000BF018093BE011D821C820E94BD01D8CFF5
:1005300086E891E00E94D0078E018C819D819C010C
:10054000E9012097A1F698CFF7011182108283E08C
:10055000DF91CF911F910F91FF90EF900895CF936E
:10056000DF93EC0186E891E00E94D0078E819F81A5
:10057000892B69F0E091BE01F091BF0106C0EC1734
:10058000FD07A9F00480F581E02D3097C1F7809137
:10059000CC019091CD019F838E838091BE0190917B
:1005A000BF019D838C83D093BF01C093BE010E9485
:1005B000BD01DF91CF9108950F931F938C010E948D
:1005C000E108C8010E94AF021F910F9108950F9397
:1005D0001F938C010E94AA08C8010E94AF021F91BC
:1005E0000F9108950F931F938C010E94EC08C8018E
:1005F0000E94AF021F910F91089580E067E646E0E8
:100600000E94940980E00E94FA0980E064E878E0A2
:100610000E94AD0908950E94FD020E9405040E94F7
:10062000C6060E94E60784E991E060E070E00E945F
:10063000A3072D980E94760883E491E00E940308A6
:1006400000D089E790E0EDB7FEB7928381830E94E6
:10065000260A88E690E0EDB7FEB7928381830E9478
:10066000260A0F900F900E94F706FDCFCF93DF93DD
:10067000482F50E0CA0180539F4FFC0134914454ED
:100680005F4FFA018491882369F190E0880F991FE8
:10069000FC01E256FF4FA591B491FC01E855FF4FD4
:1006A000C591D491662351F42FB7F8948C91932F70
:1006B000909589238C93888189230BC0623061F4E3
:1006C0002FB7F8948C91932F909589238C938881E0
:1006D000832B88832FBF06C09FB7F8948C91832B00
:1006E0008C939FBFDF91CF910895833071F0843058
:1006F00028F48130A1F0823021F514C08630B1F0A9
:100700008730D1F08430E9F404C0809180008F7785
:1007100003C0809180008F7D80938000089584B510
:100720008F7702C084B58F7D84BD08958091B0001D
:100730008F778093B00008958091B0008F7D809373
:10074000B0000895FF920F931F93F62E482F50E0AC
:10075000CA018C519F4FFC012491CA0180539F4FC5
:10076000FC01149144545F4FFA0104910023C9F035
:10077000222319F0822F0E947503E02FF0E0EE0F84
:10078000FF1FE855FF4FA591B4919FB7F894FF2044
:1007900021F48C911095812302C08C91812B8C9334
:1007A0009FBF1F910F91FF9008950F931F93482FA4
:1007B00050E0CA018C519F4FFC012491CA01805323
:1007C0009F4FFC01049144545F4FFA01149111238F
:1007D00019F420E030E015C0222319F0822F0E9486
:1007E0007503812F90E0880F991F8E549F4FFC0155
:1007F000A591B4918C9120E030E0802311F021E0AC
:1008000030E0C9011F910F910895F89416BC83EF51
:1008100087BD92E094BD84E085BD15BA90936E00CB
:10082000789408952091C2013091C3018091C20152
:100830009091C30128173907A9F7C901089520919C
:1008400012033091130340911403509115038091CA
:10085000120390911303A0911403B091150328176C
:1008600039074A075B0759F7B901CA010895609330
:100870001203709313038093140390931503089548
:10088000AC012091C2013091C3018091C2019091CD
:10089000C30128173907A9F7420F531F2091C2013E
:1008A0003091C3018091C2019091C301281739078B
:1008B000A9F7241B350B37FDF1CF0895009731F0D0
:1008C000880F991F880F991F0197F1F7089520EA63
:1008D0003FE004C0F9013197F1F701970097D1F794
:1008E0000895EF92FF920F931F936FB7F8942091A2
:1008F000C2013091C301280F391F3093C3012093E7
:10090000C2012091C401AC01420F511DE0900E03C1
:10091000F0900F0300911003109111039A0115C07C
:10092000205031408091120390911303A091140341
:10093000B09115030196A11DB11D809312039093F0
:100940001303A0931403B09315032F3F310509F04F
:1009500038F7252F3327C901A0E0B0E08E0D9F1D89
:10096000A01FB11F80930E0390930F03A093100359
:10097000B093110380E09FEFFC012E9FC0012F9FD9
:10098000900D3E9F900D1124840F951F8093C401FC
:100990006FBF1F910F91FF90EF9008951F920F92DC
:1009A0000FB60F9211242F933F934F935F936F9342
:1009B0007F938F939F93AF93BF93EF93FF93809118
:1009C000C2019091C30101969093C3018093C2012B
:1009D0008091C4018F5F8093C4010E94A301892B81
:1009E00011F00E942202FF91EF91BF91AF919F9170
:1009F0008F917F916F915F914F913F912F910F90C8
:100A00000FBE0F901F90189580910C0390910D03CD
:100A10000895AC018091C901282F30E0ACE0B3E02B
:100A2000E0E0F0E006C08D919D918417950721F0DC
:100A30003196E217F307BCF3EE0FFF1FE25FFC4FA6
:100A4000808191810895CF93DF93EC018881998112
:100A500088379105B9F18F37910509F456C0892B74
:100A600009F085C00E941D06809316031092C801EC
:100A70001092C70114C0A55FBC4F1C920480F58181
:100A8000E02D80E890E060E070E009958091C7017A
:100A90009091C80101969093C8018093C701A091DD
:100AA000C701B091C801FD01EE0FFF1FE45FFC4FCD
:100AB0000190F081E02D3097F1F6A093C90188E70D
:100AC00090E01FC01092C6011092C5011092C8019B
:100AD0001092C70139C0FD01E55FFC4F808187FF9F
:100AE0002AC0AA0FBB1FA45FBC4F4D915C9180E050
:100AF00090E0609116030E946907892B51F48FE7FB
:100B000090E09983888381E035C08091160368174F
:100B1000D1F7E091C701F091C801E55FFC4F8081FA
:100B20008F7780838091C5019091C6010196909343
:100B3000C6018093C5018091C7019091C8010196BB
:100B40009093C8018093C701A091C701B091C801DB
:100B50008091C90190E0A817B9070CF4BCCF80912F
:100B6000C5019091C601892B09F0ACCFA8CF19829D
:100B7000188283E0DF91CF9108958F929F92AF9278
:100B8000BF92CF92DF92EF92FF920F931F93CF937A
:100B9000DF934C01DC010D900020E9F78D0101503D
:100BA0001040081B190B8091C901A82EBB243CE002
:100BB000C32E33E0D32EEE24FF240FC0F601C191E3
:100BC000D1916F0168817981C401A8010E94030A53
:100BD000009741F00894E11CF11CEA14FB0474F343
:100BE000C0E0D0E0CE01DF91CF911F910F91FF9037
:100BF000EF90DF90CF90BF90AF909F908F9008952F
:100C0000AC018091C901282F30E0ACE0B3E0E0E016
:100C1000F0E006C08D919D918417950721F03196E3
:100C2000E217F307BCF3E55FFC4F808180688083A7
:100C300084E991E00E94D00708958091D6018F5FEA
:100C40008093D601815008951F93CF93DF93EC01D9
:100C5000162F8E8180FF1EC08A819B81892BD1F047
:100C6000D093CD01C093CC0182E08E83EA81FB81D9
:100C7000CE0104960995992787FD909502970297D2
:100C800010F0133829F4CE01BE010E944E0602C0B6
:100C900081E08E83DF91CF911F910895CF92DF92F3
:100CA000EF92FF920F931F93CF93DF93EC017B01A1
:100CB000C090CC01D090CD01E091CA01F091CB0160
:100CC00003C00190F081E02DEC17FD0719F030977B
:100CD000C1F74CC0209709F449C08E81882339F1AF
:100CE0001E820091CA011091CB010BC0C017D10721
:100CF00029F0C80167E8AE010E942406F8010081CE
:100D000011810115110591F78A819B81892B79F059
:100D1000CE15DF0561F0D093CD01C093CC01EA81FF
:100D2000FB81CE01049663E840E050E00995E09134
:100D3000CA01F091CB01CE17DF0791F48881998128
:100D40009093CB018093CA010DC0808191818C1753
:100D50009D0729F4888199819183808303C0FC01D8
:100D6000309799F7D092CD01C092CC01DF91CF910D
:100D70001F910F91FF90EF90DF90CF9008956091B9
:100D8000CC017091CD010E944E0608958AE88093AF
:100D9000D6011092D8011092D70110921703109229
:100DA000CB011092CA011092CD011092CC0108958E
:100DB0001F93CF93DF9310920102C091CA01D0918B
:100DC000CB0111E00EC08F81882341F01E831F826A
:100DD000CE0162E840E050E00E9424060990D881EC
:100DE000C02D209781F7DF91CF911F9108958091B9
:100DF0000102882311F00E94D8062091D7012223F6
:100E000009F455C08091D80190E0FC01EE0FFF1F5E
:100E1000EE0FFF1FE80FF91FE752FE4F608160934E
:100E2000D501418152815093D4014093D301038075
:100E3000F481E02DF093D201E093D1010196877007
:100E400090708093D80121502093D701309741F5BD
:100E50008091CA019091CB0118C080910102882332
:100E600011F00E94D8064091D3015091D401809195
:100E7000CF019091D0016091D5010E942406E091AC
:100E8000CF01F091D001808191819093D001809326
:100E9000CF018091CF019091D001892BF1F607C04D
:100EA000613811F481E08683CF010E94240680918D
:100EB00001022091D70130E0280F311DC9010895AA
:100EC000809101022091D70130E0280F311DC90126
:100ED0000895DC012091D701283019F421E030E099
:100EE00021C08091D801820F87708093CE0190E05D
:100EF000FC01EE0FFF1FEE0FFF1FE80FF91FE75277
:100F0000FE4F608352834183B483A383922F9F5FFC
:100F10009093D70180911703891710F490931703CA
:100F200020E030E0C90108950F931F930091CC0198
:100F30001091CD010E9424061093CD010093CC01A5
:100F40001F910F910895CF93DF93DC01EB01609126
:100F5000CA014091CB01862F942F9C01F90103C057
:100F60000190F081E02DEA17FB07B9F03097C1F747
:100F70006C9311964C931197B093CB01A093CA0137
:100F800081E016968C93169715961C921E921497D4
:100F9000CD0161E8AE010E949407DF91CF910895E1
:100FA000FC01009741F086818150823020F481E07D
:100FB000878380930102089520E030E0FC01868160
:100FC000882311F021E030E0C9010895CF93DF9329
:100FD000CEE8D1E004C060E070E00E94A3078991F0
:100FE00099910097C1F7DF91CF910895CF93DF9347
:100FF000EC0102C00E94BF06899199910097D1F738
:10100000DF91CF910895CF93DF93EC0104C060E0AE
:1010100070E00E94A307899199910097C1F7DF9131
:10102000CF910895CF93DF93EC0188819981883621
:10103000910579F08A37910509F44FC0892B09F0A1
:101040004FC00E941D068093180310920302109255
:10105000020285E892E00E942F092FEF8F3F92074E
:1010600019F488E690E035C0209102023091030225
:101070008A30910571F02F3731055CF7F901EC5F8B
:10108000FD4F80832F5F3F4F309303022093020276
:10109000E0CFF901EC5FFD4F10822F5F3F4F30939F
:1010A00003022093020280E090E06091180344E084
:1010B00052E00E9469078091CC019091CD0165E8D2
:1010C00040E050E00E946907892B09F0BECF8AE713
:1010D00090E09983888381E006C06538E1F7B5CF59
:1010E0001982188283E0DF91CF91089585E892E01C
:1010F0006AE872E040E80E94FA088CE991E060E05A
:1011000070E00E94A3070895682F8D3019F420E045
:1011100030E01EC080918402882351F485E892E07B
:101120000E940209892B71F481E0809384020AC035
:101130006A3041F485E892E00E940209892B11F09F
:10114000109284028CE991E00E94D00721E030E007
:10115000C9010895FC018081918122813381820F30
:10116000931F918380830895EF92FF920F931F93B3
:10117000FC01E080F180028113810E9412040E0DB7
:101180001F1D081B190BC8011F910F91FF90EF90B5
:1011900008950F931F938C010E94120440E050E0C9
:1011A000F80120813181821B930B019622813381CA
:1011B0002817390710F441E050E0CA011F910F9140
:1011C00008950F931F938C010E941204F8019183DC
:1011D00080831F910F9108950F931F938C01FC0141
:1011E000738362830E941204F801918380831F91AC
:1011F0000F910895FC0171836083415042831382F3
:1012000014820895DC0113968C91139712962C91F9
:10121000129730E0482F50E014968C911497FA0101
:10122000E81BF109CF01822393238217930719F456
:1012300020E030E012C0ED91FC911197E40FF51F12
:10124000608313968C9113978F5F12969C911297DF
:10125000892313968C9321E030E0C9010895DC01C5
:1012600014964C91149712965C91129713968C9148
:10127000139790E0642F70E0861B970B252F30E0CA
:1012800082239323181619061CF02FEF3FEF0CC092
:10129000ED91FC911197E60FF71F80814F5F452379
:1012A00014964C93282F30E0C9010895FC01228147
:1012B00030E02F5F3F4FC9010895FC01238130E0EA
:1012C0008481281B3109828190E028233923C901B8
:1012D00008951F920F920FB60F9211242F933F93F0
:1012E0004F935F936F937F938F939F93AF93BF932E
:1012F000EF93FF938091C600E0911903F0911A03D8
:10130000309709F00995FF91EF91BF91AF919F91AF
:101310008F917F916F915F914F913F912F910F909E
:101320000FBE0F901F901895882369F41092C50086
:101330006093C40088E98093C1004093C20010927A
:101340001A03109219030895882331F48091C00084
:1013500085FFFCCF6093C6000895882321F4709325
:101360001A03609319030895282FFB0131963DE07D
:1013700016C09A3049F4222349F48091C00085FFB9
:10138000FCCF3093C60002C09D3041F0222331F4DF
:101390008091C00085FFFCCF9093C600319692915A
:1013A0003196992331F70895982F8091C00085FFD9
:1013B000FCCF9093C6000895982F8A3061F48091F5
:1013C0000A03882351F48091C00085FFFCCF8DE093
:1013D0008093C60002C08D3051F080910A038823AB
:1013E00031F48091C00085FFFCCF9093C60080E06F
:1013F00090E0089580930A0384EA91E090931E039D
:1014000080931D030895FB01DC014150504030F0F2
:101410008D910190801919F40020B9F7881B990B60
:101420000895A0E0B0E0E7E1FAE00C940E0DFE01B3
:1014300035966191719180911D0390911E03AF01CA
:101440000E94810A2096E2E00C942A0DA0E0B0E010
:10145000ECE2FAE00C940E0DFE013596619171916B
:10146000A0911D03B0911E0313968C911397886071
:1014700013968C9380911D0390911E03AF010E94DF
:10148000810AE0911D03F0911E032381277F2383AE
:101490002096E2E00C942A0D0F931F93CF93DF93D5
:1014A0008C01E0911D03F0911E03838181FF21C017
:1014B000C0E0D0E00DC0E0911D03F0911E03208537
:1014C0003185BF01F9010995892B11F0CFEFDFEFCD
:1014D000F80181918F01882371F7E0911D03F0914C
:1014E0001E03208531858AE0BF01F9010995892B0A
:1014F00011F0CFEFDFEFCE01DF91CF911F910F9170
:101500000895ABE0B0E0E7E8FAE00C94FE0C3C0193
:101510002B015A01FC0117821682838181FD03C0D1
:101520006FEF7FEFC6C19AE0892E1E010894211C3F
:10153000311CF3012381F20123FD859123FF819169
:101540002F01882309F4B2C1853239F423FD859136
:1015500023FF81912F01853229F490E0B3010E948D
:10156000740CE7CF982FFF24EE249924FFE1FF1598
:10157000D0F09B3269F09C3228F4903259F09332CB
:1015800091F40EC09D3249F0903369F441E024C0DB
:1015900052E0F52A84E0F82A28C098E0F92A25C00C
:1015A000E0E1FE2A22C0F7FC29C0892F80538A304F
:1015B00070F4F6FE05C0989C902C1124980E15C06E
:1015C000E89CE02C1124E80EF0E2FF2A0EC09E32C7
:1015D00029F4F6FC6BC140E4F42A07C09C3619F4E8
:1015E00050E8F52A02C0983649F4F20123FD95919E
:1015F00023FF91912F01992309F0B8CF892F8554AA
:10160000833018F08052833038F444E050E0A40E68
:10161000B51E5FE359830FC0933631F0933779F0ED
:10162000933509F056C020C0F5018081898342E0DE
:1016300050E0A40EB51E610101E010E012C0F501FA
:10164000C080D180F6FC03C06FEF7FEF02C0692D30
:1016500070E042E050E0A40EB51EC6010E94690C85
:101660008C015FE7F52214C0F501C080D180F6FC43
:1016700003C06FEF7FEF02C0692D70E042E050E0E1
:10168000A40EB51EC6010E945E0C8C0150E8F52A1E
:10169000F3FE07C01AC080E290E0B3010E94740C10
:1016A000EA948E2D90E008171907A8F30EC0F601F2
:1016B000F7FC8591F7FE81916F0190E0B3010E94E4
:1016C000740CE110EA94015010400115110579F7EE
:1016D000EAC0943611F0993669F5F7FE08C0F501B5
:1016E000208131814281538184E090E00AC0F5017C
:1016F000808191819C01442737FD4095542F82E0E1
:1017000090E0A80EB91E9FE6F92257FF09C0509538
:101710004095309521953F4F4F4F5F4FE0E8FE2AAF
:10172000CA01B901A1012AE030E00E94A00CD82E24
:10173000D21840C0953729F41F2D1F7E2AE030E0D3
:101740001DC01F2D197F9F3661F0903720F498350A
:1017500009F0ACC00FC0903739F0983709F0A6C037
:1017600004C028E030E00AC0106114FD146020E1DC
:1017700030E004C014FD166020E132E017FF08C01D
:10178000F501608171818281938144E050E008C05D
:10179000F50180819181BC0180E090E042E050E061
:1017A000A40EB51EA1010E94A00CD82ED2188FE75E
:1017B000F82EF122F6FE0BC05EEFF522D91438F4B4
:1017C000F4FE07C0F2FC05C08FEEF82202C01D2D0A
:1017D00001C0192DF4FE0DC0FE01ED0DF11D80813B
:1017E000803319F499EEF92208C01F5FF2FE05C09C
:1017F00003C08F2D867809F01F5F0F2DF3FC14C0F6
:10180000F0FE0FC01E1510F09D2C0BC09D2C9E0CE1
:10181000911A1E2D06C080E290E0B3010E94740C64
:101820001F5F1E15C0F304C01E1510F4E11A01C09D
:10183000EE2404FF0FC080E390E0B3010E94740C1B
:1018400002FF1DC001FD03C088E790E00EC088E5DF
:1018500090E00BC0802F867891F001FF02C08BE2F0
:1018600001C080E2F7FC8DE290E0B3010E94740CAD
:1018700006C080E390E0B3010E94740C9A94D914DE
:10188000C0F3DA94F101ED0DF11D808190E0B30118
:101890000E94740CDD20A9F706C080E290E0B3013D
:1018A0000E94740CEA94EE20C1F743CEF3016681E6
:1018B0007781CB012B96E2E10C941A0DFC01059087
:1018C000615070400110D8F7809590958E0F9F1F42
:1018D0000895FC016150704001900110D8F7809587
:1018E00090958E0F9F1F08950F931F93CF93DF93B3
:1018F0008C01EB018B8181FF1BC082FF0DC02E810B
:101900003F818C819D812817390764F4E881F98132
:101910000193F983E88306C0E885F985802F09954E
:10192000892B31F48E819F8101969F838E8302C023
:101930000FEF1FEFC801DF91CF911F910F91089515
:10194000FA01AA27283051F1203181F1E8946F93F0
:101950006E7F6E5F7F4F8F4F9F4FAF4FB1E03ED096
:10196000B4E03CD0670F781F891F9A1FA11D680F34
:10197000791F8A1F911DA11D6A0F711D811D911D67
:10198000A11D20D009F468943F912AE0269F1124DC
:101990003019305D3193DEF6CF010895462F477040
:1019A000405D4193B3E00FD0C9F7F6CF462F4F709B
:1019B000405D4A3318F0495D31FD4052419302D0F9
:1019C000A9F7EACFB4E0A69597958795779567959F
:1019D000BA95C9F700976105710508959B01AC019F
:1019E0000A2E06945795479537952795BA95C9F7C6
:1019F000620F731F841F951FA01D08952F923F92A1
:101A00004F925F926F927F928F929F92AF92BF920E
:101A1000CF92DF92EF92FF920F931F93CF93DF93BA
:101A2000CDB7DEB7CA1BDB0B0FB6F894DEBF0FBE17
:101A3000CDBF09942A88398848885F846E847D8464
:101A40008C849B84AA84B984C884DF80EE80FD8066
:101A50000C811B81AA81B981CE0FD11D0FB6F894DC
:0E1A6000DEBF0FBECDBFED010895F894FFCF9D
:101A6E004C445220287265736973746F7229203D3D
:101A7E002025750A004572726F722C20656E6162A8
:101A8E006C652074686520444542554720666C613C
:101A9E006720666F7220696E666F0000009B000003
:101AAE000000003B010000524F4E444F4D20564166
:101ABE004C5545203A2025640A004C44522042528F
:101ACE00555445203A2025640A004C445220564174
:101ADE004C5545203A2025640A004C4452007A01A8
:101AEE00FB001E011101000027020000000086010C
:101AFE009C010000000023050000000000001208F9
:101B0E00000000000000000200000000DC090000E0
:021B1E000000C5
:00000001FF
