:100000000C947C000C9499000C9499000C94990029
:100010000C9499000C9499000C9499000C949900FC
:100020000C9499000C9499000C9499000C949900EC
:100030000C9499000C9499000C9400050C94990070
:100040000C9499000C9499000C949B090C949900C1
:100050000C9499000C9499000C9499000C949900BC
:100060000C9499000C94990053797374656D206F0A
:100070006E6C696E652E0D0A000D0A2A2A2A2A2A3C
:100080002A2A2A424F4F54494E4720434F4E544943
:100090004B492A2A2A2A2A2A2A2A2A0D0A0000003B
:1000A0000000240027002A0000000000250028008E
:1000B0002B00000000002300260029000404040493
:1000C0000404040402020202020203030303030302
:1000D00001020408102040800102040810200102DF
:1000E00004081020000000070002010000030406BD
:1000F000000000000000000011241FBECFEFD8E078
:10010000DEBFCDBF11E0A0E0B1E0E8E6FAE102C059
:1001100005900D92A43BB107D9F713E0A4EBB1E031
:1001200001C01D92A032B107E1F70E943D030C947B
:10013000320D0C940000CF93DF93EC0188819981FC
:100140008A34910509F46CC08B34910538F400971A
:1001500051F08434910509F099C031C08F34910574
:1001600009F094C06EC0E0918401F091850181E8AE
:1001700090E061E070E00995E0918201F0918301E7
:1001800081E090E0099584EB91E060E075E00E94E9
:100190002403E0918601F091870181E890E00995C0
:1001A00000D000D020E031E0EDB7FEB732832183EC
:1001B000948383830E94430A84E490E029C084EB03
:1001C00091E00E94BD01892B09F464C0E091820195
:1001D000F091830180E090E0099584EB91E060E08C
:1001E00075E00E942403E0918601F091870181E887
:1001F00090E0099500D000D024E231E0EDB7FEB7E1
:1002000032832183948383830E94430A8AE490E0AB
:100210009983888381E00F900F900F900F903BC0DF
:1002200084EB91E00E94BD01892BA1F184EB91E068
:1002300060E071E00E9424038FE490E0998388835A
:1002400029C084EB91E00E94BD01892B19F1E09156
:100250008201F091830182E090E00995E0918601AE
:10026000F091870181E890E0099500D000D029E461
:1002700031E0EDB7FEB732832183948383830E94FC
:10028000430A0F900F900F900F90D0CF19821882D1
:1002900083E001C081E0DF91CF910895813891051D
:1002A00031F08238910541F02FEF3FEF09C082E035
:1002B0000E9407049C0104C08091BC01282F30E0FB
:1002C000C90108958138910519F02FEF3FEF27C03C
:1002D000672B41F082E061E00E94680381E0809337
:1002E000BC011BC0EEEBF0E0E4919E2F9295907F55
:1002F00080E0AA2797FDA095BA2F80509C4FAD4F64
:10030000BF4BFC0120813181428153812B7F2083AF
:100310003183428353831092BC0120E030E0C90155
:1003200008958130910551F08230910561F0892B5B
:1003300001F58091BC018823E1F014C08091BC01DB
:100340008823B9F00AC081E890E00E944E01209114
:10035000BC01892B29F0222361F082E060E004C017
:10036000222339F082E061E00E94D40320E030E0F3
:1003700002C02FEF3FEFC901089520E030E0FC01FB
:1003800086819781892B11F421E030E0C90108951D
:10039000FC012281338180819181280F391FC9019D
:1003A0000895FC018081918108952091BD013091D3
:1003B000BE012115310511F021E030E0C901089599
:1003C0008091BD019091BE01892B19F420E030E0AD
:1003D00004C02091BF013091C001C90108958091EE
:1003E000BD019091BE01892B29F41092C001109299
:1003F000BF0108950E944404BC01E091BD01F09149
:10040000BE014281538180819181480F591F461B53
:10041000570B0CC02281338180819181280F391FB5
:10042000261B370B2417350708F4A9010480F58132
:10043000E02D309779F7460F571F5093C001409336
:10044000BF010895CF93DF93EC01E091BD01F091DE
:10045000BE018E179F0741F48C819D819093BE0150
:100460008093BD0114C0FC01309731F084819581E7
:100470008C179D07C1F707C01D821C821F821E8238
:10048000DF91CF9108958C819D81958384830E9413
:10049000EF01F2CFFC0180819181860F971F91833C
:1004A00080830E94EF01089588E891E00E9402088D
:1004B0000895EF92FF920F931F93CF93DF937C01E8
:1004C000FC0180819181009729F08A35910509F01E
:1004D0006DC00BC01092BE011092BD018AE590E084
:1004E000F7019183808381E065C0673849F59A01FF
:1004F000E091BD01F091BE0103C00480F581E02DC3
:10050000309741F38681978182179307B1F3E09387
:10051000BD01F093BE010FC016968D919C91179767
:100520008217930711F0FD0106C014968D919C91DE
:10053000159795838483A481B581109769F7CECFF1
:10054000623861F6C091BD01D091BE0100E010E0BB
:100550002AC0CE010E94FB08892B01F18E819F8168
:1005600068E8AE010E949B07892BA1F41F821E82BE
:100570008C819D810115110521F0F80195838483FB
:1005800004C09093BE018093BD011D821C820E9415
:10059000EF01D8CF88E891E00E9402088E018C819B
:1005A0009D819C01E9012097A1F698CFF701118266
:1005B000108283E0DF91CF911F910F91FF90EF9018
:1005C0000895CF93DF93EC0188E891E00E94020840
:1005D0008E819F81892B69F0E091BD01F091BE0170
:1005E00006C0EC17FD07A9F00480F581E02D3097D7
:1005F000C1F78091CB019091CC019F838E83809134
:10060000BD019091BE019D838C83D093BE01C093A8
:10061000BD010E94EF01DF91CF9108950F931F93C9
:100620008C010E941309C8010E94E1021F910F91E1
:1006300008950F931F938C010E94DC08C8010E944B
:10064000E1021F910F9108950F931F938C010E9457
:100650001E09C8010E94E1021F910F91089580E0D8
:1006600067E646E00E94C60980E00E942C0A80E00E
:1006700066EB78E00E94DF0908950E942F030E9434
:1006800037040E94F8060E94180886E991E060E0AD
:1006900070E00E94D5072D980E94A8088EE691E090
:1006A0000E94350800D089E790E0EDB7FEB792834D
:1006B00081830E94580A88E690E0EDB7FEB79283E6
:1006C00081830E94580A0F900F900E942907FDCF46
:1006D000CF93DF93482F50E0CA0180539F4FFC0116
:1006E000349144545F4FFA018491882369F190E07A
:1006F000880F991FFC01E256FF4FA591B491FC01B0
:10070000E855FF4FC591D491662351F42FB7F89463
:100710008C91932F909589238C93888189230BC08A
:10072000623061F42FB7F8948C91932F90958923C0
:100730008C938881832B88832FBF06C09FB7F89442
:100740008C91832B8C939FBFDF91CF910895833041
:1007500071F0843028F48130A1F0823021F514C08A
:100760008630B1F08730D1F08430E9F404C0809154
:1007700080008F7703C0809180008F7D8093800000
:10078000089584B58F7702C084B58F7D84BD0895A8
:100790008091B0008F778093B00008958091B00071
:1007A0008F7D8093B0000895FF920F931F93F62ED4
:1007B000482F50E0CA018C519F4FFC012491CA017F
:1007C00080539F4FFC01149144545F4FFA010491F0
:1007D0000023C9F0222319F0822F0E94A703E02FE3
:1007E000F0E0EE0FFF1FE855FF4FA591B4919FB7C2
:1007F000F894FF2021F48C911095812302C08C91F4
:10080000812B8C939FBF1F910F91FF9008950F93A1
:100810001F93482F50E0CA018C519F4FFC01249137
:10082000CA0180539F4FFC01049144545F4FFA0169
:100830001491112319F420E030E015C0222319F09F
:10084000822F0E94A703812F90E0880F991F8E545A
:100850009F4FFC01A591B4918C9120E030E0802362
:1008600011F021E030E0C9011F910F910895F89433
:1008700016BC83EF87BD92E094BD84E085BD15BAB8
:1008800090936E00789408952091C1013091C20137
:100890008091C1019091C20128173907A9F7C901B8
:1008A0000895209111033091120340911303509148
:1008B00014038091110390911203A0911303B0913E
:1008C0001403281739074A075B0759F7B901CA010A
:1008D0000895609311037093120380931303909310
:1008E00014030895AC012091C1013091C20180919F
:1008F000C1019091C20128173907A9F7420F531F70
:100900002091C1013091C2018091C1019091C20139
:1009100028173907A9F7241B350B37FDF1CF0895A8
:10092000009731F0880F991F880F991F0197F1F7F1
:10093000089520EA3FE004C0F9013197F1F70197EB
:100940000097D1F70895EF92FF920F931F936FB71F
:10095000F8942091C1013091C201280F391F3093C2
:10096000C2012093C1012091C301AC01420F511D6E
:10097000E0900D03F0900E0300910F03109110030F
:100980009A0115C0205031408091110390911203BB
:10099000A0911303B09114030196A11DB11D809382
:1009A000110390931203A0931303B09314032F3FEA
:1009B000310509F038F7252F3327C901A0E0B0E051
:1009C0008E0D9F1DA01FB11F80930D0390930E03EA
:1009D000A0930F03B093100380E09FEFFC012E9FC4
:1009E000C0012F9F900D3E9F900D1124840F951FE5
:1009F0008093C3016FBF1F910F91FF90EF900895F7
:100A00001F920F920FB60F9211242F933F934F9383
:100A10005F936F937F938F939F93AF93BF93EF9366
:100A2000FF938091C1019091C20101969093C20100
:100A30008093C1018091C3018F5F8093C3010E94A5
:100A4000D501892B11F00E945402FF91EF91BF91C3
:100A5000AF919F918F917F916F915F914F913F9156
:100A60002F910F900FBE0F901F90189580910B0340
:100A700090910C030895AC018091C801282F30E0BB
:100A8000ABE0B3E0E0E0F0E006C08D919D9184170B
:100A9000950721F03196E217F307BCF3EE0FFF1F25
:100AA000E35FFC4F808191810895CF93DF93EC0148
:100AB0008881998188379105B9F18F37910509F4BB
:100AC00056C0892B09F085C00E944F0680931503FC
:100AD0001092C7011092C60114C0A65FBC4F1C92B1
:100AE0000480F581E02D80E890E060E070E00995F9
:100AF0008091C6019091C70101969093C7018093A0
:100B0000C601A091C601B091C701FD01EE0FFF1F04
:100B1000E55FFC4F0190F081E02D3097F1F6A09356
:100B2000C80188E790E01FC01092C5011092C4016F
:100B30001092C7011092C60139C0FD01E65FFC4F5B
:100B4000808187FF2AC0AA0FBB1FA55FBC4F4D91B4
:100B50005C9180E090E0609115030E949B07892BD7
:100B600051F48FE790E09983888381E035C08091CC
:100B700015036817D1F7E091C601F091C701E65F50
:100B8000FC4F80818F7780838091C4019091C50153
:100B900001969093C5018093C4018091C601909104
:100BA000C70101969093C7018093C601A091C60129
:100BB000B091C7018091C80190E0A817B9070CF463
:100BC000BCCF8091C4019091C501892B09F0ACCFB5
:100BD000A8CF1982188283E0DF91CF9108958F9278
:100BE0009F92AF92BF92CF92DF92EF92FF920F93BC
:100BF0001F93CF93DF934C01DC010D900020E9F7A8
:100C00008D0101501040081B190B8091C801A82EBE
:100C1000BB243BE0C32E33E0D32EEE24FF240FC0D1
:100C2000F601C191D1916F0168817981C401A80158
:100C30000E94350A009741F00894E11CF11CEA1467
:100C4000FB0474F3C0E0D0E0CE01DF91CF911F919F
:100C50000F91FF90EF90DF90CF90BF90AF909F905B
:100C60008F900895AC018091C801282F30E0ABE04F
:100C7000B3E0E0E0F0E006C08D919D918417950708
:100C800021F03196E217F307BCF3E65FFC4F808159
:100C90008068808386E991E00E940208089580912F
:100CA000D5018F5F8093D501815008951F93CF9315
:100CB000DF93EC01162F8E8180FF1EC08A819B81FD
:100CC000892BD1F0D093CC01C093CB0182E08E83ED
:100CD000EA81FB81CE0104960995992787FD9095BD
:100CE0000297029710F0133829F4CE01BE010E943A
:100CF000800602C081E08E83DF91CF911F9108951D
:100D0000CF92DF92EF92FF920F931F93CF93DF93D7
:100D1000EC017B01C090CB01D090CC01E091C901E6
:100D2000F091CA0103C00190F081E02DEC17FD079E
:100D300019F03097C1F74CC0209709F449C08E8153
:100D4000882339F11E820091C9011091CA010BC09C
:100D5000C017D10729F0C80167E8AE010E94560606
:100D6000F801008111810115110591F78A819B819C
:100D7000892B79F0CE15DF0561F0D093CC01C093BB
:100D8000CB01EA81FB81CE01049663E840E050E0AC
:100D90000995E091C901F091CA01CE17DF0791F4DE
:100DA000888199819093CA018093C9010DC0808187
:100DB00091818C179D0729F4888199819183808383
:100DC00003C0FC01309799F7D092CC01C092CB01BF
:100DD000DF91CF911F910F91FF90EF90DF90CF9017
:100DE00008956091CB017091CC010E948006089516
:100DF0008AE88093D5011092D7011092D601109203
:100E000016031092CA011092C9011092CC011092DF
:100E1000CB0108951F93CF93DF9310920002C091EE
:100E2000C901D091CA0111E00EC08F81882341F021
:100E30001E831F82CE0162E840E050E00E94560609
:100E40000990D881C02D209781F7DF91CF911F9114
:100E5000089580910002882311F00E940A072091D2
:100E6000D601222309F455C08091D70190E0FC01FE
:100E7000EE0FFF1FEE0FFF1FE80FF91FE852FE4FA6
:100E800060816093D401418152815093D30140939A
:100E9000D2010380F481E02DF093D101E093D001E1
:100EA0000196877090708093D70121502093D601CE
:100EB000309741F58091C9019091CA0118C0809185
:100EC0000002882311F00E940A074091D20150913C
:100ED000D3018091CE019091CF016091D4010E9405
:100EE0005606E091CE01F091CF01808191819093DF
:100EF000CF018093CE018091CE019091CF01892BBB
:100F0000F1F607C0613811F481E08683CF010E94B9
:100F10005606809100022091D60130E0280F311D45
:100F2000C9010895809100022091D60130E0280F78
:100F3000311DC9010895DC012091D601283019F432
:100F400021E030E021C08091D701820F877080932B
:100F5000CD0190E0FC01EE0FFF1FEE0FFF1FE80F29
:100F6000F91FE852FE4F608352834183B483A38309
:100F7000922F9F5F9093D60180911603891710F4EA
:100F80009093160320E030E0C90108950F931F935A
:100F90000091CB011091CC010E9456061093CC0118
:100FA0000093CB011F910F910895CF93DF93DC0144
:100FB000EB016091C9014091CA01862F942F9C01D9
:100FC000F90103C00190F081E02DEA17FB07B9F0A9
:100FD0003097C1F76C9311964C931197B093CA0157
:100FE000A093C90181E016968C93169715961C92D2
:100FF0001E921497CD0161E8AE010E94C607DF91F1
:10100000CF910895FC01009741F086818150823094
:1010100020F481E0878380930002089520E030E08F
:10102000FC018681882311F021E030E0C901089598
:10103000CF93DF93C0E9D1E004C060E070E00E948C
:10104000D507899199910097C1F7DF91CF910895C4
:10105000CF93DF93EC0102C00E94F1068991999130
:101060000097D1F7DF91CF910895CF93DF93EC01F3
:1010700004C060E070E00E94D507899199910097C3
:10108000C1F7DF91CF910895CF93DF93EC01888171
:1010900099818836910579F08A37910509F44FC016
:1010A000892B09F04FC00E944F06809317031092BE
:1010B00002021092010284E892E00E9461092FEF7F
:1010C0008F3F920719F488E690E035C02091010225
:1010D000309102028A30910571F02F3731055CF7AB
:1010E000F901ED5FFD4F80832F5F3F4F3093020288
:1010F00020930102E0CFF901ED5FFD4F10822F5FD9
:101100003F4F309302022093010280E090E0609113
:10111000170343E052E00E949B078091CB0190911E
:10112000CC0165E840E050E00E949B07892B09F064
:10113000BECF8AE790E09983888381E006C0653856
:10114000E1F7B5CF1982188283E0DF91CF9108953E
:1011500084E892E069E872E040E80E942C098EE998
:1011600091E060E070E00E94D5070895682F8D300F
:1011700019F420E030E01EC080918302882351F4EE
:1011800084E892E00E943409892B71F481E0809315
:1011900083020AC06A3041F484E892E00E94340974
:1011A000892B11F0109283028EE991E00E940208CF
:1011B00021E030E0C9010895FC0180819181228104
:1011C0003381820F931F918380830895EF92FF9262
:1011D0000F931F93FC01E080F180028113810E9434
:1011E00044040E0D1F1D081B190BC8011F910F9100
:1011F000FF90EF9008950F931F938C010E94440479
:1012000040E050E0F80120813181821B930B019670
:10121000228133812817390710F441E050E0CA01D8
:101220001F910F9108950F931F938C010E94440406
:10123000F801918380831F910F9108950F931F935D
:101240008C01FC01738362830E944404F801918342
:1012500080831F910F910895FC0171836083415039
:101260004283138214820895DC0113968C911397A4
:1012700012962C91129730E0482F50E014968C91E2
:101280001497FA01E81BF109CF01822393238217F7
:10129000930719F420E030E012C0ED91FC91119712
:1012A000E40FF51F608313968C9113978F5F12964E
:1012B0009C911297892313968C9321E030E0C90109
:1012C0000895DC0114964C91149712965C91129734
:1012D00013968C91139790E0642F70E0861B970B08
:1012E000252F30E082239323181619061CF02FEFC8
:1012F0003FEF0CC0ED91FC911197E60FF71F808135
:101300004F5F452314964C93282F30E0C901089570
:10131000FC01228130E02F5F3F4FC9010895FC019D
:10132000238130E08481281B3109828190E02823C9
:101330003923C90108951F920F920FB60F921124FD
:101340002F933F934F935F936F937F938F939F93CD
:10135000AF93BF93EF93FF938091C600E091180382
:10136000F0911903309709F00995FF91EF91BF9122
:10137000AF919F918F917F916F915F914F913F912D
:101380002F910F900FBE0F901F901895882369F42E
:101390001092C5006093C40088E98093C100409317
:1013A000C20010921903109218030895882331F493
:1013B0008091C00085FFFCCF6093C600089588230C
:1013C00021F470931903609318030895282FFB01EB
:1013D00031963DE016C09A3049F4222349F48091B9
:1013E000C00085FFFCCF3093C60002C09D3041F0A5
:1013F000222331F48091C00085FFFCCF9093C6007A
:10140000319692913196992331F70895982F8091D2
:10141000C00085FFFCCF9093C6000895982F8A30B6
:1014200061F480910903882351F48091C00085FF05
:10143000FCCF8DE08093C60002C08D3051F08091CA
:101440000903882331F48091C00085FFFCCF90937D
:10145000C60080E090E008958093090386EA91E059
:1014600090931D0380931C030895FB01DC01415000
:10147000504030F08D910190801919F40020B9F797
:10148000881B990B0895A0E0B0E0E9E4FAE00C9421
:101490000B0DFE0135966191719180911C03909125
:1014A0001D03AF010E947E0A2096E2E00C94270DF6
:1014B000A0E0B0E0EEE5FAE00C940B0DFE013596ED
:1014C00061917191A0911C03B0911D0313968C91B1
:1014D0001397886013968C9380911C0390911D0341
:1014E000AF010E947E0AE0911C03F0911D0323814D
:1014F000277F23832096E2E00C94270DABE0B0E039
:10150000E4E8FAE00C94FB0C3C012B015A01FC01CD
:1015100017821682838181FD03C06FEF7FEFC6C102
:101520009AE0892E1E010894211C311CF3012381AD
:10153000F20123FD859123FF81912F01882309F476
:10154000B2C1853239F423FD859123FF81912F01AA
:10155000853229F490E0B3010E94710CE7CF982FF7
:10156000FF24EE249924FFE1FF15D0F09B3269F0AF
:101570009C3228F4903259F0933291F40EC09D328F
:1015800049F0903369F441E024C052E0F52A84E048
:10159000F82A28C098E0F92A25C0E0E1FE2A22C0F6
:1015A000F7FC29C0892F80538A3070F4F6FE05C0FD
:1015B000989C902C1124980E15C0E89CE02C1124C6
:1015C000E80EF0E2FF2A0EC09E3229F4F6FC6BC151
:1015D00040E4F42A07C09C3619F450E8F52A02C00A
:1015E000983649F4F20123FD959123FF91912F0143
:1015F000992309F0B8CF892F8554833018F0805291
:10160000833038F444E050E0A40EB51E5FE3598304
:101610000FC0933631F0933779F0933509F056C007
:1016200020C0F5018081898342E050E0A40EB51E00
:10163000610101E010E012C0F501C080D180F6FC2C
:1016400003C06FEF7FEF02C0692D70E042E050E011
:10165000A40EB51EC6010E94660C8C015FE7F52240
:1016600014C0F501C080D180F6FC03C06FEF7FEF9E
:1016700002C0692D70E042E050E0A40EB51EC60124
:101680000E945B0C8C0150E8F52AF3FE07C01AC0DB
:1016900080E290E0B3010E94710CEA948E2D90E0FC
:1016A00008171907A8F30EC0F601F7FC8591F7FE9D
:1016B00081916F0190E0B3010E94710CE110EA94F6
:1016C000015010400115110579F7EAC0943611F068
:1016D000993669F5F7FE08C0F50120813181428114
:1016E000538184E090E00AC0F501808191819C01E2
:1016F000442737FD4095542F82E090E0A80EB91E94
:101700009FE6F92257FF09C05095409530952195E5
:101710003F4F4F4F5F4FE0E8FE2ACA01B901A101D8
:101720002AE030E00E949D0CD82ED21840C0953798
:1017300029F41F2D1F7E2AE030E01DC01F2D197FC8
:101740009F3661F0903720F4983509F0ACC00FC097
:10175000903739F0983709F0A6C004C028E030E08F
:101760000AC0106114FD146020E130E004C014FDD3
:10177000166020E132E017FF08C0F5016081718139
:101780008281938144E050E008C0F501808191811D
:10179000BC0180E090E042E050E0A40EB51EA10143
:1017A0000E949D0CD82ED2188FE7F82EF122F6FE5B
:1017B0000BC05EEFF522D91438F4F4FE07C0F2FC3A
:1017C00005C08FEEF82202C01D2D01C0192DF4FEB8
:1017D0000DC0FE01ED0DF11D8081803319F499EEED
:1017E000F92208C01F5FF2FE05C003C08F2D867866
:1017F00009F01F5F0F2DF3FC14C0F0FE0FC01E1583
:1018000010F09D2C0BC09D2C9E0C911A1E2D06C015
:1018100080E290E0B3010E94710C1F5F1E15C0F3BF
:1018200004C01E1510F4E11A01C0EE2404FF0FC01D
:1018300080E390E0B3010E94710C02FF1DC001FD26
:1018400003C088E790E00EC088E590E00BC0802FD1
:10185000867891F001FF02C08BE201C080E2F7FCC4
:101860008DE290E0B3010E94710C06C080E390E02D
:10187000B3010E94710C9A94D914C0F3DA94F10167
:10188000ED0DF11D808190E0B3010E94710CDD200F
:10189000A9F706C080E290E0B3010E94710CEA94BF
:1018A000EE20C1F743CEF30166817781CB012B9601
:1018B000E2E10C94170DFC0105906150704001109D
:1018C000D8F7809590958E0F9F1F0895FC01615069
:1018D000704001900110D8F7809590958E0F9F1F52
:1018E00008950F931F93CF93DF938C01EB018B81AE
:1018F00081FF1BC082FF0DC02E813F818C819D81A5
:101900002817390764F4E881F9810193F983E883A2
:1019100006C0E885F985802F0995892B31F48E81E1
:101920009F8101969F838E8302C00FEF1FEFC80136
:10193000DF91CF911F910F910895FA01AA272830C6
:1019400051F1203181F1E8946F936E7F6E5F7F4F8C
:101950008F4F9F4FAF4FB1E03ED0B4E03CD0670F08
:10196000781F891F9A1FA11D680F791F8A1F911D5B
:10197000A11D6A0F711D811D911DA11D20D009F4AB
:1019800068943F912AE0269F11243019305D3193ED
:10199000DEF6CF010895462F4770405D4193B3E0D6
:1019A0000FD0C9F7F6CF462F4F70405D4A3318F07D
:1019B000495D31FD4052419302D0A9F7EACFB4E02E
:1019C000A6959795879577956795BA95C9F70097E6
:1019D0006105710508959B01AC010A2E0694579587
:1019E000479537952795BA95C9F7620F731F841FDE
:1019F000951FA01D08952F923F924F925F926F9274
:101A00007F928F929F92AF92BF92CF92DF92EF928E
:101A1000FF920F931F93CF93DF93CDB7DEB7CA1B0F
:101A2000DB0B0FB6F894DEBF0FBECDBF09942A883A
:101A3000398848885F846E847D848C849B84AA84E2
:101A4000B984C884DF80EE80FD800C811B81AA816F
:101A5000B981CE0FD11D0FB6F894DEBF0FBECDBF3A
:081A6000ED010895F894FFCF99
:101A68000A52656C61793A207377697463682073E8
:101A7800686F756C64206265204F4E202D2D3E20C6
:101A880025750A0052656C61793A20737769746329
:101A9800682073686F756C64206265204F46462025
:101AA8002D2D3E2025750A0A0052656C61793A2071
:101AB800737769746368206973206E6F77202D2DA2
:101AC8003E2025750A0000009B000000000066010A
:101AD800000047656E657269632052656C61790024
:101AE8007201910162014E010000590200000000DC
:101AF80088019E010000000055050000000000005C
:101B080044080000000000000002000000000E0A67
:041B180000000000C9
:00000001FF
